{
  "contractName": "HealthSystem",
  "abi": [
    {
      "anonymous": false,
      "inputs": [
        {
          "indexed": false,
          "internalType": "address",
          "name": "patient",
          "type": "address"
        },
        {
          "indexed": false,
          "internalType": "address",
          "name": "doctor",
          "type": "address"
        }
      ],
      "name": "ConsultationApproved",
      "type": "event"
    },
    {
      "anonymous": false,
      "inputs": [
        {
          "indexed": false,
          "internalType": "address",
          "name": "patient",
          "type": "address"
        },
        {
          "indexed": false,
          "internalType": "address",
          "name": "doctor",
          "type": "address"
        }
      ],
      "name": "ConsultationRejected",
      "type": "event"
    },
    {
      "anonymous": false,
      "inputs": [
        {
          "indexed": false,
          "internalType": "address",
          "name": "patient",
          "type": "address"
        },
        {
          "indexed": false,
          "internalType": "address",
          "name": "doctor",
          "type": "address"
        }
      ],
      "name": "ConsultationRequested",
      "type": "event"
    },
    {
      "anonymous": false,
      "inputs": [
        {
          "indexed": false,
          "internalType": "address",
          "name": "doctor",
          "type": "address"
        }
      ],
      "name": "DoctorRegistered",
      "type": "event"
    },
    {
      "anonymous": false,
      "inputs": [
        {
          "indexed": false,
          "internalType": "address",
          "name": "patient",
          "type": "address"
        }
      ],
      "name": "PatientRegistered",
      "type": "event"
    },
    {
      "anonymous": false,
      "inputs": [
        {
          "indexed": false,
          "internalType": "address",
          "name": "from",
          "type": "address"
        },
        {
          "indexed": false,
          "internalType": "address",
          "name": "to",
          "type": "address"
        },
        {
          "indexed": false,
          "internalType": "string",
          "name": "prescriptionHash",
          "type": "string"
        }
      ],
      "name": "PrescriptionSent",
      "type": "event"
    },
    {
      "anonymous": false,
      "inputs": [
        {
          "indexed": false,
          "internalType": "address",
          "name": "from",
          "type": "address"
        },
        {
          "indexed": false,
          "internalType": "address",
          "name": "to",
          "type": "address"
        },
        {
          "indexed": false,
          "internalType": "string",
          "name": "reportHash",
          "type": "string"
        }
      ],
      "name": "ReportSent",
      "type": "event"
    },
    {
      "inputs": [
        {
          "internalType": "address",
          "name": "",
          "type": "address"
        },
        {
          "internalType": "address",
          "name": "",
          "type": "address"
        },
        {
          "internalType": "uint256",
          "name": "",
          "type": "uint256"
        }
      ],
      "name": "doctorPrescriptions",
      "outputs": [
        {
          "internalType": "string",
          "name": "",
          "type": "string"
        }
      ],
      "stateMutability": "view",
      "type": "function",
      "constant": true
    },
    {
      "inputs": [
        {
          "internalType": "address",
          "name": "",
          "type": "address"
        }
      ],
      "name": "doctors",
      "outputs": [
        {
          "internalType": "string",
          "name": "firstName",
          "type": "string"
        },
        {
          "internalType": "string",
          "name": "lastName",
          "type": "string"
        },
        {
          "internalType": "string",
          "name": "specialization",
          "type": "string"
        },
        {
          "internalType": "string",
          "name": "email",
          "type": "string"
        },
        {
          "internalType": "string",
          "name": "phoneNumber",
          "type": "string"
        },
        {
          "internalType": "address",
          "name": "walletAddress",
          "type": "address"
        },
        {
          "internalType": "bool",
          "name": "isRegistered",
          "type": "bool"
        }
      ],
      "stateMutability": "view",
      "type": "function",
      "constant": true
    },
    {
      "inputs": [
        {
          "internalType": "address",
          "name": "",
          "type": "address"
        },
        {
          "internalType": "address",
          "name": "",
          "type": "address"
        },
        {
          "internalType": "uint256",
          "name": "",
          "type": "uint256"
        }
      ],
      "name": "patientReports",
      "outputs": [
        {
          "internalType": "string",
          "name": "",
          "type": "string"
        }
      ],
      "stateMutability": "view",
      "type": "function",
      "constant": true
    },
    {
      "inputs": [
        {
          "internalType": "address",
          "name": "",
          "type": "address"
        }
      ],
      "name": "patients",
      "outputs": [
        {
          "internalType": "string",
          "name": "firstName",
          "type": "string"
        },
        {
          "internalType": "string",
          "name": "lastName",
          "type": "string"
        },
        {
          "internalType": "string",
          "name": "dateOfBirth",
          "type": "string"
        },
        {
          "internalType": "string",
          "name": "email",
          "type": "string"
        },
        {
          "internalType": "string",
          "name": "gender",
          "type": "string"
        },
        {
          "internalType": "string",
          "name": "patientAddress",
          "type": "string"
        },
        {
          "internalType": "string",
          "name": "phoneNumber",
          "type": "string"
        },
        {
          "internalType": "string",
          "name": "bloodGroup",
          "type": "string"
        },
        {
          "internalType": "address",
          "name": "walletAddress",
          "type": "address"
        },
        {
          "internalType": "string",
          "name": "insuranceProvider",
          "type": "string"
        },
        {
          "internalType": "string",
          "name": "policyNumber",
          "type": "string"
        },
        {
          "internalType": "bool",
          "name": "isRegistered",
          "type": "bool"
        }
      ],
      "stateMutability": "view",
      "type": "function",
      "constant": true
    },
    {
      "inputs": [
        {
          "internalType": "uint256",
          "name": "",
          "type": "uint256"
        }
      ],
      "name": "registeredDoctors",
      "outputs": [
        {
          "internalType": "address",
          "name": "",
          "type": "address"
        }
      ],
      "stateMutability": "view",
      "type": "function",
      "constant": true
    },
    {
      "inputs": [
        {
          "internalType": "uint256",
          "name": "",
          "type": "uint256"
        }
      ],
      "name": "registeredPatients",
      "outputs": [
        {
          "internalType": "address",
          "name": "",
          "type": "address"
        }
      ],
      "stateMutability": "view",
      "type": "function",
      "constant": true
    },
    {
      "inputs": [
        {
          "internalType": "bytes32",
          "name": "",
          "type": "bytes32"
        }
      ],
      "name": "requests",
      "outputs": [
        {
          "internalType": "address",
          "name": "patient",
          "type": "address"
        },
        {
          "internalType": "address",
          "name": "doctor",
          "type": "address"
        },
        {
          "internalType": "bool",
          "name": "approvedByPatient",
          "type": "bool"
        },
        {
          "internalType": "bool",
          "name": "approvedByDoctor",
          "type": "bool"
        },
        {
          "internalType": "bool",
          "name": "exists",
          "type": "bool"
        }
      ],
      "stateMutability": "view",
      "type": "function",
      "constant": true
    },
    {
      "inputs": [
        {
          "internalType": "string",
          "name": "_firstName",
          "type": "string"
        },
        {
          "internalType": "string",
          "name": "_lastName",
          "type": "string"
        },
        {
          "internalType": "string",
          "name": "_dateOfBirth",
          "type": "string"
        },
        {
          "internalType": "string",
          "name": "_email",
          "type": "string"
        },
        {
          "internalType": "string",
          "name": "_gender",
          "type": "string"
        },
        {
          "internalType": "string",
          "name": "_patientAddress",
          "type": "string"
        },
        {
          "internalType": "string",
          "name": "_phoneNumber",
          "type": "string"
        },
        {
          "internalType": "string",
          "name": "_bloodGroup",
          "type": "string"
        },
        {
          "internalType": "string",
          "name": "_insuranceProvider",
          "type": "string"
        },
        {
          "internalType": "string",
          "name": "_policyNumber",
          "type": "string"
        }
      ],
      "name": "registerPatient",
      "outputs": [],
      "stateMutability": "nonpayable",
      "type": "function"
    },
    {
      "inputs": [
        {
          "internalType": "string",
          "name": "_firstName",
          "type": "string"
        },
        {
          "internalType": "string",
          "name": "_lastName",
          "type": "string"
        },
        {
          "internalType": "string",
          "name": "_specialization",
          "type": "string"
        },
        {
          "internalType": "string",
          "name": "_email",
          "type": "string"
        },
        {
          "internalType": "string",
          "name": "_phoneNumber",
          "type": "string"
        }
      ],
      "name": "registerDoctor",
      "outputs": [],
      "stateMutability": "nonpayable",
      "type": "function"
    },
    {
      "inputs": [
        {
          "internalType": "address",
          "name": "_doctor",
          "type": "address"
        }
      ],
      "name": "getDoctorDetails",
      "outputs": [
        {
          "internalType": "string",
          "name": "firstName",
          "type": "string"
        },
        {
          "internalType": "string",
          "name": "lastName",
          "type": "string"
        },
        {
          "internalType": "string",
          "name": "specialization",
          "type": "string"
        },
        {
          "internalType": "string",
          "name": "email",
          "type": "string"
        },
        {
          "internalType": "string",
          "name": "phoneNumber",
          "type": "string"
        }
      ],
      "stateMutability": "view",
      "type": "function",
      "constant": true
    },
    {
      "inputs": [],
      "name": "getAllRegisteredPatients",
      "outputs": [
        {
          "internalType": "address[]",
          "name": "",
          "type": "address[]"
        }
      ],
      "stateMutability": "view",
      "type": "function",
      "constant": true
    },
    {
      "inputs": [],
      "name": "getAllRegisteredDoctors",
      "outputs": [
        {
          "internalType": "address[]",
          "name": "",
          "type": "address[]"
        }
      ],
      "stateMutability": "view",
      "type": "function",
      "constant": true
    },
    {
      "inputs": [
        {
          "internalType": "address",
          "name": "_doctor",
          "type": "address"
        }
      ],
      "name": "requestConsultation",
      "outputs": [],
      "stateMutability": "nonpayable",
      "type": "function"
    },
    {
      "inputs": [
        {
          "internalType": "address",
          "name": "_patient",
          "type": "address"
        }
      ],
      "name": "doctorApproveConsultation",
      "outputs": [],
      "stateMutability": "nonpayable",
      "type": "function"
    },
    {
      "inputs": [
        {
          "internalType": "address",
          "name": "_patient",
          "type": "address"
        }
      ],
      "name": "doctorRejectConsultation",
      "outputs": [],
      "stateMutability": "nonpayable",
      "type": "function"
    },
    {
      "inputs": [
        {
          "internalType": "address",
          "name": "_patient",
          "type": "address"
        },
        {
          "internalType": "address",
          "name": "_doctor",
          "type": "address"
        }
      ],
      "name": "isApproved",
      "outputs": [
        {
          "internalType": "bool",
          "name": "",
          "type": "bool"
        }
      ],
      "stateMutability": "view",
      "type": "function",
      "constant": true
    },
    {
      "inputs": [
        {
          "internalType": "address",
          "name": "_patient",
          "type": "address"
        },
        {
          "internalType": "string",
          "name": "_prescriptionHash",
          "type": "string"
        }
      ],
      "name": "sendPrescription",
      "outputs": [],
      "stateMutability": "nonpayable",
      "type": "function"
    },
    {
      "inputs": [
        {
          "internalType": "address",
          "name": "_doctor",
          "type": "address"
        },
        {
          "internalType": "string",
          "name": "_reportHash",
          "type": "string"
        }
      ],
      "name": "sendReport",
      "outputs": [],
      "stateMutability": "nonpayable",
      "type": "function"
    }
  ],
  "bytecode": "0x608060405234801561001057600080fd5b50613815806100206000396000f3fe608060405234801561001057600080fd5b50600436106101165760003560e01c80639d19beaa116100a2578063bab90dbd11610071578063bab90dbd1461032c578063bcea09ac14610360578063d262802f1461037c578063d73d520814610398578063dd3fe9c8146103c857610116565b80639d19beaa146102625780639d86698514610292578063a389783e146102c6578063a9583c22146102f657610116565b80634d54a7ca116100e95780634d54a7ca146101c0578063612c2d4b146101dc5780636a721b061461020c5780638f7741ac1461022857806390a9cfbe1461024657610116565b806304c428861461011b5780630869cfbc1461014b5780631be44c4f14610186578063413f107a146101a2575b600080fd5b610135600480360381019061013091906126db565b6103e4565b6040516101429190612749565b60405180910390f35b61016560048036038101906101609190612790565b610423565b60405161017d9c9b9a99989796959493929190612871565b60405180910390f35b6101a0600480360381019061019b9190612790565b610a00565b005b6101aa610ba0565b6040516101b79190612a2f565b60405180910390f35b6101da60048036038101906101d59190612790565b610c2e565b005b6101f660048036038101906101f19190612a51565b610e3f565b6040516102039190612aa4565b60405180910390f35b61022660048036038101906102219190612bfb565b610f05565b005b6102306110d2565b60405161023d9190612a2f565b60405180910390f35b610260600480360381019061025b9190612bfb565b611160565b005b61027c60048036038101906102779190612a51565b61132c565b6040516102899190612aa4565b60405180910390f35b6102ac60048036038101906102a79190612c8d565b6113f2565b6040516102bd959493929190612cba565b60405180910390f35b6102e060048036038101906102db9190612d0d565b61148f565b6040516102ed9190612d4d565b60405180910390f35b610310600480360381019061030b9190612790565b611516565b6040516103239796959493929190612d68565b60405180910390f35b61034660048036038101906103419190612790565b61182d565b604051610357959493929190612dfa565b60405180910390f35b61037a60048036038101906103759190612e70565b611c3f565b005b61039660048036038101906103919190612790565b611ef6565b005b6103b260048036038101906103ad91906126db565b612241565b6040516103bf9190612749565b60405180910390f35b6103e260048036038101906103dd9190612f77565b612280565b005b600481815481106103f457600080fd5b906000526020600020016000915054906101000a900473ffffffffffffffffffffffffffffffffffffffff1681565b60006020528060005260406000206000915090508060000180546104469061319d565b80601f01602080910402602001604051908101604052809291908181526020018280546104729061319d565b80156104bf5780601f10610494576101008083540402835291602001916104bf565b820191906000526020600020905b8154815290600101906020018083116104a257829003601f168201915b5050505050908060010180546104d49061319d565b80601f01602080910402602001604051908101604052809291908181526020018280546105009061319d565b801561054d5780601f106105225761010080835404028352916020019161054d565b820191906000526020600020905b81548152906001019060200180831161053057829003601f168201915b5050505050908060020180546105629061319d565b80601f016020809104026020016040519081016040528092919081815260200182805461058e9061319d565b80156105db5780601f106105b0576101008083540402835291602001916105db565b820191906000526020600020905b8154815290600101906020018083116105be57829003601f168201915b5050505050908060030180546105f09061319d565b80601f016020809104026020016040519081016040528092919081815260200182805461061c9061319d565b80156106695780601f1061063e57610100808354040283529160200191610669565b820191906000526020600020905b81548152906001019060200180831161064c57829003601f168201915b50505050509080600401805461067e9061319d565b80601f01602080910402602001604051908101604052809291908181526020018280546106aa9061319d565b80156106f75780601f106106cc576101008083540402835291602001916106f7565b820191906000526020600020905b8154815290600101906020018083116106da57829003601f168201915b50505050509080600501805461070c9061319d565b80601f01602080910402602001604051908101604052809291908181526020018280546107389061319d565b80156107855780601f1061075a57610100808354040283529160200191610785565b820191906000526020600020905b81548152906001019060200180831161076857829003601f168201915b50505050509080600601805461079a9061319d565b80601f01602080910402602001604051908101604052809291908181526020018280546107c69061319d565b80156108135780601f106107e857610100808354040283529160200191610813565b820191906000526020600020905b8154815290600101906020018083116107f657829003601f168201915b5050505050908060070180546108289061319d565b80601f01602080910402602001604051908101604052809291908181526020018280546108549061319d565b80156108a15780601f10610876576101008083540402835291602001916108a1565b820191906000526020600020905b81548152906001019060200180831161088457829003601f168201915b5050505050908060080160009054906101000a900473ffffffffffffffffffffffffffffffffffffffff16908060090180546108dc9061319d565b80601f01602080910402602001604051908101604052809291908181526020018280546109089061319d565b80156109555780601f1061092a57610100808354040283529160200191610955565b820191906000526020600020905b81548152906001019060200180831161093857829003601f168201915b50505050509080600a01805461096a9061319d565b80601f01602080910402602001604051908101604052809291908181526020018280546109969061319d565b80156109e35780601f106109b8576101008083540402835291602001916109e3565b820191906000526020600020905b8154815290600101906020018083116109c657829003601f168201915b50505050509080600b0160009054906101000a900460ff1690508c565b60008133604051602001610a15929190613216565b6040516020818303038152906040528051906020012090506002600082815260200190815260200160002060010160169054906101000a900460ff16610a90576040517f08c379a0000000000000000000000000000000000000000000000000000000008152600401610a879061328e565b60405180910390fd5b3373ffffffffffffffffffffffffffffffffffffffff166002600083815260200190815260200160002060010160009054906101000a900473ffffffffffffffffffffffffffffffffffffffff1673ffffffffffffffffffffffffffffffffffffffff1614610b34576040517f08c379a0000000000000000000000000000000000000000000000000000000008152600401610b2b906132fa565b60405180910390fd5b60016002600083815260200190815260200160002060010160156101000a81548160ff0219169083151502179055507f465d2c56bf0295e3b4fe188527a79c56456e1d62892dc043f6dfa1fce9a8a1428233604051610b9492919061331a565b60405180910390a15050565b60606003805480602002602001604051908101604052809291908181526020018280548015610c2457602002820191906000526020600020905b8160009054906101000a900473ffffffffffffffffffffffffffffffffffffffff1673ffffffffffffffffffffffffffffffffffffffff1681526020019060010190808311610bda575b5050505050905090565b60008133604051602001610c43929190613216565b6040516020818303038152906040528051906020012090506002600082815260200190815260200160002060010160169054906101000a900460ff16610cbe576040517f08c379a0000000000000000000000000000000000000000000000000000000008152600401610cb59061328e565b60405180910390fd5b3373ffffffffffffffffffffffffffffffffffffffff166002600083815260200190815260200160002060010160009054906101000a900473ffffffffffffffffffffffffffffffffffffffff1673ffffffffffffffffffffffffffffffffffffffff1614610d62576040517f08c379a0000000000000000000000000000000000000000000000000000000008152600401610d599061338f565b60405180910390fd5b60026000828152602001908152602001600020600080820160006101000a81549073ffffffffffffffffffffffffffffffffffffffff02191690556001820160006101000a81549073ffffffffffffffffffffffffffffffffffffffff02191690556001820160146101000a81549060ff02191690556001820160156101000a81549060ff02191690556001820160166101000a81549060ff021916905550507fbacaa6fbdd1ebfc4402702aa9c5b8962c81b9d7be52efc0a06eef3a12b4e9a378233604051610e3392919061331a565b60405180910390a15050565b60066020528260005260406000206020528160005260406000208181548110610e6757600080fd5b9060005260206000200160009250925050508054610e849061319d565b80601f0160208091040260200160405190810160405280929190818152602001828054610eb09061319d565b8015610efd5780601f10610ed257610100808354040283529160200191610efd565b820191906000526020600020905b815481529060010190602001808311610ee057829003601f168201915b505050505081565b600160003373ffffffffffffffffffffffffffffffffffffffff1673ffffffffffffffffffffffffffffffffffffffff16815260200190815260200160002060050160149054906101000a900460ff16610f94576040517f08c379a0000000000000000000000000000000000000000000000000000000008152600401610f8b90613421565b60405180910390fd5b610f9e823361148f565b610fdd576040517f08c379a0000000000000000000000000000000000000000000000000000000008152600401610fd49061348d565b60405180910390fd5b600660003373ffffffffffffffffffffffffffffffffffffffff1673ffffffffffffffffffffffffffffffffffffffff16815260200190815260200160002060008373ffffffffffffffffffffffffffffffffffffffff1673ffffffffffffffffffffffffffffffffffffffff168152602001908152602001600020819080600181540180825580915050600190039060005260206000200160009091909190915090805190602001906110929291906125ee565b507f4f3e584412b404b8ea3e8ae1652df00170eb8b52474dece1592acffd5d7714433383836040516110c6939291906134ad565b60405180910390a15050565b6060600480548060200260200160405190810160405280929190818152602001828054801561115657602002820191906000526020600020905b8160009054906101000a900473ffffffffffffffffffffffffffffffffffffffff1673ffffffffffffffffffffffffffffffffffffffff168152602001906001019080831161110c575b5050505050905090565b6000803373ffffffffffffffffffffffffffffffffffffffff1673ffffffffffffffffffffffffffffffffffffffff168152602001908152602001600020600b0160009054906101000a900460ff166111ee576040517f08c379a00000000000000000000000000000000000000000000000000000000081526004016111e590613537565b60405180910390fd5b6111f8338361148f565b611237576040517f08c379a000000000000000000000000000000000000000000000000000000000815260040161122e906135a3565b60405180910390fd5b600560003373ffffffffffffffffffffffffffffffffffffffff1673ffffffffffffffffffffffffffffffffffffffff16815260200190815260200160002060008373ffffffffffffffffffffffffffffffffffffffff1673ffffffffffffffffffffffffffffffffffffffff168152602001908152602001600020819080600181540180825580915050600190039060005260206000200160009091909190915090805190602001906112ec9291906125ee565b507f8023a7ca475404bb682ee6e09b92c8b51eef2274132c3fdfc13b740300a6ea5b338383604051611320939291906134ad565b60405180910390a15050565b6005602052826000526040600020602052816000526040600020818154811061135457600080fd5b90600052602060002001600092509250505080546113719061319d565b80601f016020809104026020016040519081016040528092919081815260200182805461139d9061319d565b80156113ea5780601f106113bf576101008083540402835291602001916113ea565b820191906000526020600020905b8154815290600101906020018083116113cd57829003601f168201915b505050505081565b60026020528060005260406000206000915090508060000160009054906101000a900473ffffffffffffffffffffffffffffffffffffffff16908060010160009054906101000a900473ffffffffffffffffffffffffffffffffffffffff16908060010160149054906101000a900460ff16908060010160159054906101000a900460ff16908060010160169054906101000a900460ff16905085565b60008083836040516020016114a5929190613216565b6040516020818303038152906040528051906020012090506002600082815260200190815260200160002060010160149054906101000a900460ff16801561150d57506002600082815260200190815260200160002060010160159054906101000a900460ff165b91505092915050565b60016020528060005260406000206000915090508060000180546115399061319d565b80601f01602080910402602001604051908101604052809291908181526020018280546115659061319d565b80156115b25780601f10611587576101008083540402835291602001916115b2565b820191906000526020600020905b81548152906001019060200180831161159557829003601f168201915b5050505050908060010180546115c79061319d565b80601f01602080910402602001604051908101604052809291908181526020018280546115f39061319d565b80156116405780601f1061161557610100808354040283529160200191611640565b820191906000526020600020905b81548152906001019060200180831161162357829003601f168201915b5050505050908060020180546116559061319d565b80601f01602080910402602001604051908101604052809291908181526020018280546116819061319d565b80156116ce5780601f106116a3576101008083540402835291602001916116ce565b820191906000526020600020905b8154815290600101906020018083116116b157829003601f168201915b5050505050908060030180546116e39061319d565b80601f016020809104026020016040519081016040528092919081815260200182805461170f9061319d565b801561175c5780601f106117315761010080835404028352916020019161175c565b820191906000526020600020905b81548152906001019060200180831161173f57829003601f168201915b5050505050908060040180546117719061319d565b80601f016020809104026020016040519081016040528092919081815260200182805461179d9061319d565b80156117ea5780601f106117bf576101008083540402835291602001916117ea565b820191906000526020600020905b8154815290600101906020018083116117cd57829003601f168201915b5050505050908060050160009054906101000a900473ffffffffffffffffffffffffffffffffffffffff16908060050160149054906101000a900460ff16905087565b60608060608060606000600160008873ffffffffffffffffffffffffffffffffffffffff1673ffffffffffffffffffffffffffffffffffffffff1681526020019081526020016000206040518060e00160405290816000820180546118919061319d565b80601f01602080910402602001604051908101604052809291908181526020018280546118bd9061319d565b801561190a5780601f106118df5761010080835404028352916020019161190a565b820191906000526020600020905b8154815290600101906020018083116118ed57829003601f168201915b505050505081526020016001820180546119239061319d565b80601f016020809104026020016040519081016040528092919081815260200182805461194f9061319d565b801561199c5780601f106119715761010080835404028352916020019161199c565b820191906000526020600020905b81548152906001019060200180831161197f57829003601f168201915b505050505081526020016002820180546119b59061319d565b80601f01602080910402602001604051908101604052809291908181526020018280546119e19061319d565b8015611a2e5780601f10611a0357610100808354040283529160200191611a2e565b820191906000526020600020905b815481529060010190602001808311611a1157829003601f168201915b50505050508152602001600382018054611a479061319d565b80601f0160208091040260200160405190810160405280929190818152602001828054611a739061319d565b8015611ac05780601f10611a9557610100808354040283529160200191611ac0565b820191906000526020600020905b815481529060010190602001808311611aa357829003601f168201915b50505050508152602001600482018054611ad99061319d565b80601f0160208091040260200160405190810160405280929190818152602001828054611b059061319d565b8015611b525780601f10611b2757610100808354040283529160200191611b52565b820191906000526020600020905b815481529060010190602001808311611b3557829003601f168201915b505050505081526020016005820160009054906101000a900473ffffffffffffffffffffffffffffffffffffffff1673ffffffffffffffffffffffffffffffffffffffff1673ffffffffffffffffffffffffffffffffffffffff1681526020016005820160149054906101000a900460ff16151515158152505090508060c00151611c12576040517f08c379a0000000000000000000000000000000000000000000000000000000008152600401611c099061360f565b60405180910390fd5b80600001518160200151826040015183606001518460800151955095509550955095505091939590929450565b600160003373ffffffffffffffffffffffffffffffffffffffff1673ffffffffffffffffffffffffffffffffffffffff16815260200190815260200160002060050160149054906101000a900460ff1615611ccf576040517f08c379a0000000000000000000000000000000000000000000000000000000008152600401611cc69061367b565b60405180910390fd5b6040518060e001604052808681526020018581526020018481526020018381526020018281526020013373ffffffffffffffffffffffffffffffffffffffff16815260200160011515815250600160003373ffffffffffffffffffffffffffffffffffffffff1673ffffffffffffffffffffffffffffffffffffffff1681526020019081526020016000206000820151816000019080519060200190611d769291906125ee565b506020820151816001019080519060200190611d939291906125ee565b506040820151816002019080519060200190611db09291906125ee565b506060820151816003019080519060200190611dcd9291906125ee565b506080820151816004019080519060200190611dea9291906125ee565b5060a08201518160050160006101000a81548173ffffffffffffffffffffffffffffffffffffffff021916908373ffffffffffffffffffffffffffffffffffffffff16021790555060c08201518160050160146101000a81548160ff0219169083151502179055509050506004339080600181540180825580915050600190039060005260206000200160009091909190916101000a81548173ffffffffffffffffffffffffffffffffffffffff021916908373ffffffffffffffffffffffffffffffffffffffff1602179055507f2dc8105a7545248d0e354c4c6b02fb583071cc719fb4bef1ca74d72d475570bc33604051611ee79190612749565b60405180910390a15050505050565b6000803373ffffffffffffffffffffffffffffffffffffffff1673ffffffffffffffffffffffffffffffffffffffff168152602001908152602001600020600b0160009054906101000a900460ff16611f84576040517f08c379a0000000000000000000000000000000000000000000000000000000008152600401611f7b906136e7565b60405180910390fd5b600160008273ffffffffffffffffffffffffffffffffffffffff1673ffffffffffffffffffffffffffffffffffffffff16815260200190815260200160002060050160149054906101000a900460ff16612013576040517f08c379a000000000000000000000000000000000000000000000000000000000815260040161200a9061360f565b60405180910390fd5b60003382604051602001612028929190613216565b6040516020818303038152906040528051906020012090506002600082815260200190815260200160002060010160169054906101000a900460ff16156120a4576040517f08c379a000000000000000000000000000000000000000000000000000000000815260040161209b90613753565b60405180910390fd5b6040518060a001604052803373ffffffffffffffffffffffffffffffffffffffff1681526020018373ffffffffffffffffffffffffffffffffffffffff168152602001600115158152602001600015158152602001600115158152506002600083815260200190815260200160002060008201518160000160006101000a81548173ffffffffffffffffffffffffffffffffffffffff021916908373ffffffffffffffffffffffffffffffffffffffff16021790555060208201518160010160006101000a81548173ffffffffffffffffffffffffffffffffffffffff021916908373ffffffffffffffffffffffffffffffffffffffff16021790555060408201518160010160146101000a81548160ff02191690831515021790555060608201518160010160156101000a81548160ff02191690831515021790555060808201518160010160166101000a81548160ff0219169083151502179055509050507ff65067ce934150f21861910aaa332d4381f58128789d698cb8cee44f251b7cab338360405161223592919061331a565b60405180910390a15050565b6003818154811061225157600080fd5b906000526020600020016000915054906101000a900473ffffffffffffffffffffffffffffffffffffffff1681565b6000803373ffffffffffffffffffffffffffffffffffffffff1673ffffffffffffffffffffffffffffffffffffffff168152602001908152602001600020600b0160009054906101000a900460ff161561230f576040517f08c379a0000000000000000000000000000000000000000000000000000000008152600401612306906137bf565b60405180910390fd5b6040518061018001604052808b81526020018a81526020018981526020018881526020018781526020018681526020018581526020018481526020013373ffffffffffffffffffffffffffffffffffffffff168152602001838152602001828152602001600115158152506000803373ffffffffffffffffffffffffffffffffffffffff1673ffffffffffffffffffffffffffffffffffffffff16815260200190815260200160002060008201518160000190805190602001906123d49291906125ee565b5060208201518160010190805190602001906123f19291906125ee565b50604082015181600201908051906020019061240e9291906125ee565b50606082015181600301908051906020019061242b9291906125ee565b5060808201518160040190805190602001906124489291906125ee565b5060a08201518160050190805190602001906124659291906125ee565b5060c08201518160060190805190602001906124829291906125ee565b5060e082015181600701908051906020019061249f9291906125ee565b506101008201518160080160006101000a81548173ffffffffffffffffffffffffffffffffffffffff021916908373ffffffffffffffffffffffffffffffffffffffff1602179055506101208201518160090190805190602001906125059291906125ee565b5061014082015181600a0190805190602001906125239291906125ee565b5061016082015181600b0160006101000a81548160ff0219169083151502179055509050506003339080600181540180825580915050600190039060005260206000200160009091909190916101000a81548173ffffffffffffffffffffffffffffffffffffffff021916908373ffffffffffffffffffffffffffffffffffffffff1602179055507fc9fa2003fca4ce0dfc8cb0deae32266b715536df6685365b05b5be96ede8e49c336040516125da9190612749565b60405180910390a150505050505050505050565b8280546125fa9061319d565b90600052602060002090601f01602090048101928261261c5760008555612663565b82601f1061263557805160ff1916838001178555612663565b82800160010185558215612663579182015b82811115612662578251825591602001919060010190612647565b5b5090506126709190612674565b5090565b5b8082111561268d576000816000905550600101612675565b5090565b6000604051905090565b600080fd5b600080fd5b6000819050919050565b6126b8816126a5565b81146126c357600080fd5b50565b6000813590506126d5816126af565b92915050565b6000602082840312156126f1576126f061269b565b5b60006126ff848285016126c6565b91505092915050565b600073ffffffffffffffffffffffffffffffffffffffff82169050919050565b600061273382612708565b9050919050565b61274381612728565b82525050565b600060208201905061275e600083018461273a565b92915050565b61276d81612728565b811461277857600080fd5b50565b60008135905061278a81612764565b92915050565b6000602082840312156127a6576127a561269b565b5b60006127b48482850161277b565b91505092915050565b600081519050919050565b600082825260208201905092915050565b60005b838110156127f75780820151818401526020810190506127dc565b83811115612806576000848401525b50505050565b6000601f19601f8301169050919050565b6000612828826127bd565b61283281856127c8565b93506128428185602086016127d9565b61284b8161280c565b840191505092915050565b60008115159050919050565b61286b81612856565b82525050565b600061018082019050818103600083015261288c818f61281d565b905081810360208301526128a0818e61281d565b905081810360408301526128b4818d61281d565b905081810360608301526128c8818c61281d565b905081810360808301526128dc818b61281d565b905081810360a08301526128f0818a61281d565b905081810360c0830152612904818961281d565b905081810360e0830152612918818861281d565b905061292861010083018761273a565b81810361012083015261293b818661281d565b9050818103610140830152612950818561281d565b9050612960610160830184612862565b9d9c50505050505050505050505050565b600081519050919050565b600082825260208201905092915050565b6000819050602082019050919050565b6129a681612728565b82525050565b60006129b8838361299d565b60208301905092915050565b6000602082019050919050565b60006129dc82612971565b6129e6818561297c565b93506129f18361298d565b8060005b83811015612a22578151612a0988826129ac565b9750612a14836129c4565b9250506001810190506129f5565b5085935050505092915050565b60006020820190508181036000830152612a4981846129d1565b905092915050565b600080600060608486031215612a6a57612a6961269b565b5b6000612a788682870161277b565b9350506020612a898682870161277b565b9250506040612a9a868287016126c6565b9150509250925092565b60006020820190508181036000830152612abe818461281d565b905092915050565b600080fd5b600080fd5b7f4e487b7100000000000000000000000000000000000000000000000000000000600052604160045260246000fd5b612b088261280c565b810181811067ffffffffffffffff82111715612b2757612b26612ad0565b5b80604052505050565b6000612b3a612691565b9050612b468282612aff565b919050565b600067ffffffffffffffff821115612b6657612b65612ad0565b5b612b6f8261280c565b9050602081019050919050565b82818337600083830152505050565b6000612b9e612b9984612b4b565b612b30565b905082815260208101848484011115612bba57612bb9612acb565b5b612bc5848285612b7c565b509392505050565b600082601f830112612be257612be1612ac6565b5b8135612bf2848260208601612b8b565b91505092915050565b60008060408385031215612c1257612c1161269b565b5b6000612c208582860161277b565b925050602083013567ffffffffffffffff811115612c4157612c406126a0565b5b612c4d85828601612bcd565b9150509250929050565b6000819050919050565b612c6a81612c57565b8114612c7557600080fd5b50565b600081359050612c8781612c61565b92915050565b600060208284031215612ca357612ca261269b565b5b6000612cb184828501612c78565b91505092915050565b600060a082019050612ccf600083018861273a565b612cdc602083018761273a565b612ce96040830186612862565b612cf66060830185612862565b612d036080830184612862565b9695505050505050565b60008060408385031215612d2457612d2361269b565b5b6000612d328582860161277b565b9250506020612d438582860161277b565b9150509250929050565b6000602082019050612d626000830184612862565b92915050565b600060e0820190508181036000830152612d82818a61281d565b90508181036020830152612d96818961281d565b90508181036040830152612daa818861281d565b90508181036060830152612dbe818761281d565b90508181036080830152612dd2818661281d565b9050612de160a083018561273a565b612dee60c0830184612862565b98975050505050505050565b600060a0820190508181036000830152612e14818861281d565b90508181036020830152612e28818761281d565b90508181036040830152612e3c818661281d565b90508181036060830152612e50818561281d565b90508181036080830152612e64818461281d565b90509695505050505050565b600080600080600060a08688031215612e8c57612e8b61269b565b5b600086013567ffffffffffffffff811115612eaa57612ea96126a0565b5b612eb688828901612bcd565b955050602086013567ffffffffffffffff811115612ed757612ed66126a0565b5b612ee388828901612bcd565b945050604086013567ffffffffffffffff811115612f0457612f036126a0565b5b612f1088828901612bcd565b935050606086013567ffffffffffffffff811115612f3157612f306126a0565b5b612f3d88828901612bcd565b925050608086013567ffffffffffffffff811115612f5e57612f5d6126a0565b5b612f6a88828901612bcd565b9150509295509295909350565b6000806000806000806000806000806101408b8d031215612f9b57612f9a61269b565b5b60008b013567ffffffffffffffff811115612fb957612fb86126a0565b5b612fc58d828e01612bcd565b9a505060208b013567ffffffffffffffff811115612fe657612fe56126a0565b5b612ff28d828e01612bcd565b99505060408b013567ffffffffffffffff811115613013576130126126a0565b5b61301f8d828e01612bcd565b98505060608b013567ffffffffffffffff8111156130405761303f6126a0565b5b61304c8d828e01612bcd565b97505060808b013567ffffffffffffffff81111561306d5761306c6126a0565b5b6130798d828e01612bcd565b96505060a08b013567ffffffffffffffff81111561309a576130996126a0565b5b6130a68d828e01612bcd565b95505060c08b013567ffffffffffffffff8111156130c7576130c66126a0565b5b6130d38d828e01612bcd565b94505060e08b013567ffffffffffffffff8111156130f4576130f36126a0565b5b6131008d828e01612bcd565b9350506101008b013567ffffffffffffffff811115613122576131216126a0565b5b61312e8d828e01612bcd565b9250506101208b013567ffffffffffffffff8111156131505761314f6126a0565b5b61315c8d828e01612bcd565b9150509295989b9194979a5092959850565b7f4e487b7100000000000000000000000000000000000000000000000000000000600052602260045260246000fd5b600060028204905060018216806131b557607f821691505b6020821081036131c8576131c761316e565b5b50919050565b60008160601b9050919050565b60006131e6826131ce565b9050919050565b60006131f8826131db565b9050919050565b61321061320b82612728565b6131ed565b82525050565b600061322282856131ff565b60148201915061323282846131ff565b6014820191508190509392505050565b7f5265717565737420646f6573206e6f7420657869737400000000000000000000600082015250565b60006132786016836127c8565b915061328382613242565b602082019050919050565b600060208201905081810360008301526132a78161326b565b9050919050565b7f4f6e6c7920646f63746f722063616e20617070726f7665000000000000000000600082015250565b60006132e46017836127c8565b91506132ef826132ae565b602082019050919050565b60006020820190508181036000830152613313816132d7565b9050919050565b600060408201905061332f600083018561273a565b61333c602083018461273a565b9392505050565b7f4f6e6c7920646f63746f722063616e2072656a65637400000000000000000000600082015250565b60006133796016836127c8565b915061338482613343565b602082019050919050565b600060208201905081810360008301526133a88161336c565b9050919050565b7f4f6e6c7920646f63746f722063616e2073656e6420707265736372697074696f60008201527f6e73000000000000000000000000000000000000000000000000000000000000602082015250565b600061340b6022836127c8565b9150613416826133af565b604082019050919050565b6000602082019050818103600083015261343a816133fe565b9050919050565b7f446f63746f72206e6f7420617070726f7665642062792070617469656e740000600082015250565b6000613477601e836127c8565b915061348282613441565b602082019050919050565b600060208201905081810360008301526134a68161346a565b9050919050565b60006060820190506134c2600083018661273a565b6134cf602083018561273a565b81810360408301526134e1818461281d565b9050949350505050565b7f4f6e6c792070617469656e742063616e2073656e64207265706f727473000000600082015250565b6000613521601d836127c8565b915061352c826134eb565b602082019050919050565b6000602082019050818103600083015261355081613514565b9050919050565b7f50617469656e74206e6f7420617070726f76656420646f63746f720000000000600082015250565b600061358d601b836127c8565b915061359882613557565b602082019050919050565b600060208201905081810360008301526135bc81613580565b9050919050565b7f446f63746f72206e6f7420726567697374657265640000000000000000000000600082015250565b60006135f96015836127c8565b9150613604826135c3565b602082019050919050565b60006020820190508181036000830152613628816135ec565b9050919050565b7f446f63746f7220616c7265616479207265676973746572656400000000000000600082015250565b60006136656019836127c8565b91506136708261362f565b602082019050919050565b6000602082019050818103600083015261369481613658565b9050919050565b7f50617469656e74206e6f74207265676973746572656400000000000000000000600082015250565b60006136d16016836127c8565b91506136dc8261369b565b602082019050919050565b60006020820190508181036000830152613700816136c4565b9050919050565b7f5265717565737420616c72656164792065786973747300000000000000000000600082015250565b600061373d6016836127c8565b915061374882613707565b602082019050919050565b6000602082019050818103600083015261376c81613730565b9050919050565b7f50617469656e7420616c72656164792072656769737465726564000000000000600082015250565b60006137a9601a836127c8565b91506137b482613773565b602082019050919050565b600060208201905081810360008301526137d88161379c565b905091905056fea26469706673582212209de08024f75c83fdb7b5bfb6e2270c2e5408cb0acddba55712ac6227b3ddc01064736f6c634300080d0033",
  "immutableReferences": {},
  "source": "// SPDX-License-Identifier: MIT\r\npragma solidity ^0.8.13;\r\n\r\ncontract HealthSystem {\r\n    struct Patient {\r\n        string firstName;\r\n        string lastName;\r\n        string dateOfBirth;\r\n        string email;\r\n        string gender;\r\n        string patientAddress;\r\n        string phoneNumber;\r\n        string bloodGroup;\r\n        address walletAddress;\r\n        string insuranceProvider;\r\n        string policyNumber;\r\n        bool isRegistered;\r\n    }\r\n\r\n    struct Doctor {\r\n        string firstName;\r\n        string lastName;\r\n        string specialization;\r\n        string email;\r\n        string phoneNumber;\r\n        address walletAddress;\r\n        bool isRegistered;\r\n    }\r\n\r\n    struct ConsultationRequest {\r\n        address patient;\r\n        address doctor;\r\n        bool approvedByPatient;\r\n        bool approvedByDoctor;\r\n        bool exists;\r\n    }\r\n\r\n    mapping(address => Patient) public patients;\r\n    mapping(address => Doctor) public doctors;\r\n    mapping(bytes32 => ConsultationRequest) public requests;\r\n\r\n    address[] public registeredPatients;\r\n    address[] public registeredDoctors;\r\n\r\n    mapping(address => mapping(address => string[])) public patientReports;\r\n    mapping(address => mapping(address => string[])) public doctorPrescriptions;\r\n\r\n    event PatientRegistered(address patient);\r\n    event DoctorRegistered(address doctor);\r\n    event ConsultationRequested(address patient, address doctor);\r\n    event ConsultationApproved(address patient, address doctor);\r\n    event ConsultationRejected(address patient, address doctor);\r\n    event ReportSent(address from, address to, string reportHash);\r\n    event PrescriptionSent(address from, address to, string prescriptionHash);\r\n\r\n    function registerPatient(\r\n        string memory _firstName,\r\n        string memory _lastName,\r\n        string memory _dateOfBirth,\r\n        string memory _email,\r\n        string memory _gender,\r\n        string memory _patientAddress,\r\n        string memory _phoneNumber,\r\n        string memory _bloodGroup,\r\n        string memory _insuranceProvider,\r\n        string memory _policyNumber\r\n    ) public {\r\n        require(!patients[msg.sender].isRegistered, \"Patient already registered\");\r\n        patients[msg.sender] = Patient({\r\n            firstName: _firstName,\r\n            lastName: _lastName,\r\n            dateOfBirth: _dateOfBirth,\r\n            email: _email,\r\n            gender: _gender,\r\n            patientAddress: _patientAddress,\r\n            phoneNumber: _phoneNumber,\r\n            bloodGroup: _bloodGroup,\r\n            walletAddress: msg.sender,\r\n            insuranceProvider: _insuranceProvider,\r\n            policyNumber: _policyNumber,\r\n            isRegistered: true\r\n        });\r\n        registeredPatients.push(msg.sender);\r\n        emit PatientRegistered(msg.sender);\r\n    }\r\n\r\n    function registerDoctor(\r\n        string memory _firstName,\r\n        string memory _lastName,\r\n        string memory _specialization,\r\n        string memory _email,\r\n        string memory _phoneNumber\r\n    ) public {\r\n        require(!doctors[msg.sender].isRegistered, \"Doctor already registered\");\r\n        doctors[msg.sender] = Doctor({\r\n            firstName: _firstName,\r\n            lastName: _lastName,\r\n            specialization: _specialization,\r\n            email: _email,\r\n            phoneNumber: _phoneNumber,\r\n            walletAddress: msg.sender,\r\n            isRegistered: true\r\n        });\r\n        registeredDoctors.push(msg.sender);\r\n        emit DoctorRegistered(msg.sender);\r\n    }\r\n\r\n    // New getter function to fetch detailed doctor info by address\r\n    function getDoctorDetails(address _doctor) public view returns (\r\n        string memory firstName,\r\n        string memory lastName,\r\n        string memory specialization,\r\n        string memory email,\r\n        string memory phoneNumber\r\n    ) {\r\n        Doctor memory d = doctors[_doctor];\r\n        require(d.isRegistered, \"Doctor not registered\");\r\n        return (\r\n            d.firstName,\r\n            d.lastName,\r\n            d.specialization,\r\n            d.email,\r\n            d.phoneNumber\r\n        );\r\n    }\r\n\r\n    function getAllRegisteredPatients() public view returns (address[] memory) {\r\n        return registeredPatients;\r\n    }\r\n\r\n    function getAllRegisteredDoctors() public view returns (address[] memory) {\r\n        return registeredDoctors;\r\n    }\r\n\r\n    function requestConsultation(address _doctor) public {\r\n        require(patients[msg.sender].isRegistered, \"Patient not registered\");\r\n        require(doctors[_doctor].isRegistered, \"Doctor not registered\");\r\n        bytes32 key = keccak256(abi.encodePacked(msg.sender, _doctor));\r\n        require(!requests[key].exists, \"Request already exists\");\r\n        requests[key] = ConsultationRequest({\r\n            patient: msg.sender,\r\n            doctor: _doctor,\r\n            approvedByPatient: true,\r\n            approvedByDoctor: false,\r\n            exists: true\r\n        });\r\n        emit ConsultationRequested(msg.sender, _doctor);\r\n    }\r\n\r\n    function doctorApproveConsultation(address _patient) public {\r\n        bytes32 key = keccak256(abi.encodePacked(_patient, msg.sender));\r\n        require(requests[key].exists, \"Request does not exist\");\r\n        require(requests[key].doctor == msg.sender, \"Only doctor can approve\");\r\n        requests[key].approvedByDoctor = true;\r\n        emit ConsultationApproved(_patient, msg.sender);\r\n    }\r\n\r\n    function doctorRejectConsultation(address _patient) public {\r\n        bytes32 key = keccak256(abi.encodePacked(_patient, msg.sender));\r\n        require(requests[key].exists, \"Request does not exist\");\r\n        require(requests[key].doctor == msg.sender, \"Only doctor can reject\");\r\n        delete requests[key];\r\n        emit ConsultationRejected(_patient, msg.sender);\r\n    }\r\n\r\n    function isApproved(address _patient, address _doctor) public view returns (bool) {\r\n        bytes32 key = keccak256(abi.encodePacked(_patient, _doctor));\r\n        return requests[key].approvedByPatient && requests[key].approvedByDoctor;\r\n    }\r\n\r\n    function sendPrescription(address _patient, string memory _prescriptionHash) public {\r\n        require(doctors[msg.sender].isRegistered, \"Only doctor can send prescriptions\");\r\n        require(isApproved(_patient, msg.sender), \"Doctor not approved by patient\");\r\n        doctorPrescriptions[msg.sender][_patient].push(_prescriptionHash);\r\n        emit PrescriptionSent(msg.sender, _patient, _prescriptionHash);\r\n    }\r\n\r\n    function sendReport(address _doctor, string memory _reportHash) public {\r\n        require(patients[msg.sender].isRegistered, \"Only patient can send reports\");\r\n        require(isApproved(msg.sender, _doctor), \"Patient not approved doctor\");\r\n        patientReports[msg.sender][_doctor].push(_reportHash);\r\n        emit ReportSent(msg.sender, _doctor, _reportHash);\r\n    }\r\n}\r\n",
  "sourcePath": "C:\\Users\\venka\\OneDrive\\Desktop\\EMR-blockchain-project\\truffle\\contracts\\HealthSystem.sol",
  "compiler": {
    "name": "solc",
    "version": "0.8.13+commit.abaa5c0e.Emscripten.clang"
  },
  "schemaVersion": "3.4.16",
  "updatedAt": "2025-06-05T11:07:45.776Z",
  "networkType": "ethereum",
  "devdoc": {
    "kind": "dev",
    "methods": {},
    "version": 1
  },
  "userdoc": {
    "kind": "user",
    "methods": {},
    "version": 1
  }
}