{
  "contractName": "HealthSystem",
  "abi": [
    {
      "anonymous": false,
      "inputs": [
        {
          "indexed": false,
          "internalType": "address",
          "name": "patient",
          "type": "address"
        },
        {
          "indexed": false,
          "internalType": "address",
          "name": "doctor",
          "type": "address"
        }
      ],
      "name": "ConsultationApproved",
      "type": "event"
    },
    {
      "anonymous": false,
      "inputs": [
        {
          "indexed": false,
          "internalType": "address",
          "name": "patient",
          "type": "address"
        },
        {
          "indexed": false,
          "internalType": "address",
          "name": "doctor",
          "type": "address"
        }
      ],
      "name": "ConsultationRejected",
      "type": "event"
    },
    {
      "anonymous": false,
      "inputs": [
        {
          "indexed": false,
          "internalType": "address",
          "name": "patient",
          "type": "address"
        },
        {
          "indexed": false,
          "internalType": "address",
          "name": "doctor",
          "type": "address"
        }
      ],
      "name": "ConsultationRequested",
      "type": "event"
    },
    {
      "anonymous": false,
      "inputs": [
        {
          "indexed": false,
          "internalType": "address",
          "name": "doctor",
          "type": "address"
        }
      ],
      "name": "DoctorRegistered",
      "type": "event"
    },
    {
      "anonymous": false,
      "inputs": [
        {
          "indexed": false,
          "internalType": "address",
          "name": "patient",
          "type": "address"
        }
      ],
      "name": "PatientRegistered",
      "type": "event"
    },
    {
      "anonymous": false,
      "inputs": [
        {
          "indexed": false,
          "internalType": "address",
          "name": "from",
          "type": "address"
        },
        {
          "indexed": false,
          "internalType": "address",
          "name": "to",
          "type": "address"
        },
        {
          "indexed": false,
          "internalType": "string",
          "name": "prescriptionHash",
          "type": "string"
        }
      ],
      "name": "PrescriptionSent",
      "type": "event"
    },
    {
      "anonymous": false,
      "inputs": [
        {
          "indexed": false,
          "internalType": "address",
          "name": "from",
          "type": "address"
        },
        {
          "indexed": false,
          "internalType": "address",
          "name": "to",
          "type": "address"
        },
        {
          "indexed": false,
          "internalType": "string",
          "name": "reportHash",
          "type": "string"
        }
      ],
      "name": "ReportSent",
      "type": "event"
    },
    {
      "inputs": [
        {
          "internalType": "address",
          "name": "",
          "type": "address"
        },
        {
          "internalType": "address",
          "name": "",
          "type": "address"
        },
        {
          "internalType": "uint256",
          "name": "",
          "type": "uint256"
        }
      ],
      "name": "doctorPrescriptions",
      "outputs": [
        {
          "internalType": "string",
          "name": "",
          "type": "string"
        }
      ],
      "stateMutability": "view",
      "type": "function",
      "constant": true
    },
    {
      "inputs": [
        {
          "internalType": "address",
          "name": "",
          "type": "address"
        }
      ],
      "name": "doctors",
      "outputs": [
        {
          "internalType": "string",
          "name": "firstName",
          "type": "string"
        },
        {
          "internalType": "string",
          "name": "lastName",
          "type": "string"
        },
        {
          "internalType": "string",
          "name": "specialization",
          "type": "string"
        },
        {
          "internalType": "string",
          "name": "email",
          "type": "string"
        },
        {
          "internalType": "string",
          "name": "phoneNumber",
          "type": "string"
        },
        {
          "internalType": "address",
          "name": "walletAddress",
          "type": "address"
        },
        {
          "internalType": "bool",
          "name": "isRegistered",
          "type": "bool"
        },
        {
          "internalType": "string",
          "name": "licensenumber",
          "type": "string"
        },
        {
          "internalType": "string",
          "name": "Doctoraddress",
          "type": "string"
        },
        {
          "internalType": "string",
          "name": "YearsExperience",
          "type": "string"
        }
      ],
      "stateMutability": "view",
      "type": "function",
      "constant": true
    },
    {
      "inputs": [
        {
          "internalType": "address",
          "name": "",
          "type": "address"
        },
        {
          "internalType": "address",
          "name": "",
          "type": "address"
        },
        {
          "internalType": "uint256",
          "name": "",
          "type": "uint256"
        }
      ],
      "name": "patientReports",
      "outputs": [
        {
          "internalType": "string",
          "name": "",
          "type": "string"
        }
      ],
      "stateMutability": "view",
      "type": "function",
      "constant": true
    },
    {
      "inputs": [
        {
          "internalType": "address",
          "name": "",
          "type": "address"
        }
      ],
      "name": "patients",
      "outputs": [
        {
          "internalType": "string",
          "name": "firstName",
          "type": "string"
        },
        {
          "internalType": "string",
          "name": "lastName",
          "type": "string"
        },
        {
          "internalType": "string",
          "name": "dateOfBirth",
          "type": "string"
        },
        {
          "internalType": "string",
          "name": "email",
          "type": "string"
        },
        {
          "internalType": "string",
          "name": "gender",
          "type": "string"
        },
        {
          "internalType": "string",
          "name": "patientAddress",
          "type": "string"
        },
        {
          "internalType": "string",
          "name": "phoneNumber",
          "type": "string"
        },
        {
          "internalType": "string",
          "name": "bloodGroup",
          "type": "string"
        },
        {
          "internalType": "address",
          "name": "walletAddress",
          "type": "address"
        },
        {
          "internalType": "string",
          "name": "insuranceProvider",
          "type": "string"
        },
        {
          "internalType": "string",
          "name": "policyNumber",
          "type": "string"
        },
        {
          "internalType": "bool",
          "name": "isRegistered",
          "type": "bool"
        }
      ],
      "stateMutability": "view",
      "type": "function",
      "constant": true
    },
    {
      "inputs": [
        {
          "internalType": "uint256",
          "name": "",
          "type": "uint256"
        }
      ],
      "name": "registeredDoctors",
      "outputs": [
        {
          "internalType": "address",
          "name": "",
          "type": "address"
        }
      ],
      "stateMutability": "view",
      "type": "function",
      "constant": true
    },
    {
      "inputs": [
        {
          "internalType": "uint256",
          "name": "",
          "type": "uint256"
        }
      ],
      "name": "registeredPatients",
      "outputs": [
        {
          "internalType": "address",
          "name": "",
          "type": "address"
        }
      ],
      "stateMutability": "view",
      "type": "function",
      "constant": true
    },
    {
      "inputs": [
        {
          "internalType": "bytes32",
          "name": "",
          "type": "bytes32"
        }
      ],
      "name": "requests",
      "outputs": [
        {
          "internalType": "address",
          "name": "patient",
          "type": "address"
        },
        {
          "internalType": "address",
          "name": "doctor",
          "type": "address"
        },
        {
          "internalType": "bool",
          "name": "approvedByPatient",
          "type": "bool"
        },
        {
          "internalType": "bool",
          "name": "approvedByDoctor",
          "type": "bool"
        },
        {
          "internalType": "bool",
          "name": "exists",
          "type": "bool"
        }
      ],
      "stateMutability": "view",
      "type": "function",
      "constant": true
    },
    {
      "inputs": [
        {
          "internalType": "string",
          "name": "_firstName",
          "type": "string"
        },
        {
          "internalType": "string",
          "name": "_lastName",
          "type": "string"
        },
        {
          "internalType": "string",
          "name": "_dateOfBirth",
          "type": "string"
        },
        {
          "internalType": "string",
          "name": "_email",
          "type": "string"
        },
        {
          "internalType": "string",
          "name": "_gender",
          "type": "string"
        },
        {
          "internalType": "string",
          "name": "_patientAddress",
          "type": "string"
        },
        {
          "internalType": "string",
          "name": "_phoneNumber",
          "type": "string"
        },
        {
          "internalType": "string",
          "name": "_bloodGroup",
          "type": "string"
        },
        {
          "internalType": "string",
          "name": "_insuranceProvider",
          "type": "string"
        },
        {
          "internalType": "string",
          "name": "_policyNumber",
          "type": "string"
        }
      ],
      "name": "registerPatient",
      "outputs": [],
      "stateMutability": "nonpayable",
      "type": "function"
    },
    {
      "inputs": [
        {
          "internalType": "string",
          "name": "_firstName",
          "type": "string"
        },
        {
          "internalType": "string",
          "name": "_lastName",
          "type": "string"
        },
        {
          "internalType": "string",
          "name": "_specialization",
          "type": "string"
        },
        {
          "internalType": "string",
          "name": "_email",
          "type": "string"
        },
        {
          "internalType": "string",
          "name": "_phoneNumber",
          "type": "string"
        },
        {
          "internalType": "string",
          "name": "_Address",
          "type": "string"
        },
        {
          "internalType": "string",
          "name": "_Experience",
          "type": "string"
        },
        {
          "internalType": "string",
          "name": "_LicenceNumber",
          "type": "string"
        }
      ],
      "name": "registerDoctor",
      "outputs": [],
      "stateMutability": "nonpayable",
      "type": "function"
    },
    {
      "inputs": [
        {
          "internalType": "address",
          "name": "_doctor",
          "type": "address"
        }
      ],
      "name": "getDoctorDetails",
      "outputs": [
        {
          "internalType": "string",
          "name": "firstName",
          "type": "string"
        },
        {
          "internalType": "string",
          "name": "lastName",
          "type": "string"
        },
        {
          "internalType": "string",
          "name": "specialization",
          "type": "string"
        },
        {
          "internalType": "string",
          "name": "email",
          "type": "string"
        },
        {
          "internalType": "string",
          "name": "phoneNumber",
          "type": "string"
        },
        {
          "internalType": "string",
          "name": "licensenumber",
          "type": "string"
        },
        {
          "internalType": "string",
          "name": "Doctoraddress",
          "type": "string"
        },
        {
          "internalType": "string",
          "name": "YearsExperience",
          "type": "string"
        }
      ],
      "stateMutability": "view",
      "type": "function",
      "constant": true
    },
    {
      "inputs": [],
      "name": "getAllRegisteredPatients",
      "outputs": [
        {
          "internalType": "address[]",
          "name": "",
          "type": "address[]"
        }
      ],
      "stateMutability": "view",
      "type": "function",
      "constant": true
    },
    {
      "inputs": [],
      "name": "getAllRegisteredDoctors",
      "outputs": [
        {
          "internalType": "address[]",
          "name": "",
          "type": "address[]"
        }
      ],
      "stateMutability": "view",
      "type": "function",
      "constant": true
    },
    {
      "inputs": [
        {
          "internalType": "address",
          "name": "_doctor",
          "type": "address"
        }
      ],
      "name": "requestConsultation",
      "outputs": [],
      "stateMutability": "nonpayable",
      "type": "function"
    },
    {
      "inputs": [
        {
          "internalType": "address",
          "name": "_patient",
          "type": "address"
        }
      ],
      "name": "doctorApproveConsultation",
      "outputs": [],
      "stateMutability": "nonpayable",
      "type": "function"
    },
    {
      "inputs": [
        {
          "internalType": "address",
          "name": "_patient",
          "type": "address"
        }
      ],
      "name": "doctorRejectConsultation",
      "outputs": [],
      "stateMutability": "nonpayable",
      "type": "function"
    },
    {
      "inputs": [
        {
          "internalType": "address",
          "name": "_patient",
          "type": "address"
        },
        {
          "internalType": "address",
          "name": "_doctor",
          "type": "address"
        }
      ],
      "name": "isApproved",
      "outputs": [
        {
          "internalType": "bool",
          "name": "",
          "type": "bool"
        }
      ],
      "stateMutability": "view",
      "type": "function",
      "constant": true
    },
    {
      "inputs": [
        {
          "internalType": "address",
          "name": "_patient",
          "type": "address"
        },
        {
          "internalType": "string",
          "name": "_prescriptionHash",
          "type": "string"
        }
      ],
      "name": "sendPrescription",
      "outputs": [],
      "stateMutability": "nonpayable",
      "type": "function"
    },
    {
      "inputs": [
        {
          "internalType": "address",
          "name": "_doctor",
          "type": "address"
        },
        {
          "internalType": "string",
          "name": "_reportHash",
          "type": "string"
        }
      ],
      "name": "sendReport",
      "outputs": [],
      "stateMutability": "nonpayable",
      "type": "function"
    },
    {
      "inputs": [
        {
          "internalType": "address",
          "name": "patient",
          "type": "address"
        },
        {
          "internalType": "address",
          "name": "doctor",
          "type": "address"
        }
      ],
      "name": "getPatientReports",
      "outputs": [
        {
          "internalType": "string[]",
          "name": "",
          "type": "string[]"
        }
      ],
      "stateMutability": "view",
      "type": "function",
      "constant": true
    },
    {
      "inputs": [
        {
          "internalType": "address",
          "name": "doctor",
          "type": "address"
        },
        {
          "internalType": "address",
          "name": "patient",
          "type": "address"
        }
      ],
      "name": "getDoctorPrescriptions",
      "outputs": [
        {
          "internalType": "string[]",
          "name": "",
          "type": "string[]"
        }
      ],
      "stateMutability": "view",
      "type": "function",
      "constant": true
    }
  ],
  "bytecode": "0x608060405234801561001057600080fd5b50614169806100206000396000f3fe608060405234801561001057600080fd5b506004361061012c5760003560e01c80639d19beaa116100ad578063bc3a124711610071578063bc3a1247146103ac578063d262802f146103c8578063d73d5208146103e4578063dd3fe9c814610414578063e907e780146104305761012c565b80639d19beaa146102a85780639d866985146102d8578063a389783e1461030c578063a9583c221461033c578063bab90dbd146103755761012c565b80634e338bd2116100f45780634e338bd2146101f2578063612c2d4b146102225780636a721b06146102525780638f7741ac1461026e57806390a9cfbe1461028c5761012c565b806304c42886146101315780630869cfbc146101615780631be44c4f1461019c578063413f107a146101b85780634d54a7ca146101d6575b600080fd5b61014b60048036038101906101469190612df0565b610460565b6040516101589190612e5e565b60405180910390f35b61017b60048036038101906101769190612ea5565b61049f565b6040516101939c9b9a99989796959493929190612f86565b60405180910390f35b6101b660048036038101906101b19190612ea5565b610a7c565b005b6101c0610c1c565b6040516101cd9190613144565b60405180910390f35b6101f060048036038101906101eb9190612ea5565b610caa565b005b61020c60048036038101906102079190613166565b610ebb565b60405161021991906132b2565b60405180910390f35b61023c600480360381019061023791906132d4565b611011565b6040516102499190613327565b60405180910390f35b61026c6004803603810190610267919061347e565b6110d7565b005b6102766112a4565b6040516102839190613144565b60405180910390f35b6102a660048036038101906102a1919061347e565b611332565b005b6102c260048036038101906102bd91906132d4565b6114fe565b6040516102cf9190613327565b60405180910390f35b6102f260048036038101906102ed9190613510565b6115c4565b60405161030395949392919061353d565b60405180910390f35b61032660048036038101906103219190613166565b611661565b6040516103339190613590565b60405180910390f35b61035660048036038101906103519190612ea5565b6116e8565b60405161036c9a999897969594939291906135ab565b60405180910390f35b61038f600480360381019061038a9190612ea5565b611ba9565b6040516103a398979695949392919061367f565b60405180910390f35b6103c660048036038101906103c19190613735565b61218f565b005b6103e260048036038101906103dd9190612ea5565b6124b5565b005b6103fe60048036038101906103f99190612df0565b612800565b60405161040b9190612e5e565b60405180910390f35b61042e600480360381019061042991906138cb565b61283f565b005b61044a60048036038101906104459190613166565b612bad565b60405161045791906132b2565b60405180910390f35b6004818154811061047057600080fd5b906000526020600020016000915054906101000a900473ffffffffffffffffffffffffffffffffffffffff1681565b60006020528060005260406000206000915090508060000180546104c290613af1565b80601f01602080910402602001604051908101604052809291908181526020018280546104ee90613af1565b801561053b5780601f106105105761010080835404028352916020019161053b565b820191906000526020600020905b81548152906001019060200180831161051e57829003601f168201915b50505050509080600101805461055090613af1565b80601f016020809104026020016040519081016040528092919081815260200182805461057c90613af1565b80156105c95780601f1061059e576101008083540402835291602001916105c9565b820191906000526020600020905b8154815290600101906020018083116105ac57829003601f168201915b5050505050908060020180546105de90613af1565b80601f016020809104026020016040519081016040528092919081815260200182805461060a90613af1565b80156106575780601f1061062c57610100808354040283529160200191610657565b820191906000526020600020905b81548152906001019060200180831161063a57829003601f168201915b50505050509080600301805461066c90613af1565b80601f016020809104026020016040519081016040528092919081815260200182805461069890613af1565b80156106e55780601f106106ba576101008083540402835291602001916106e5565b820191906000526020600020905b8154815290600101906020018083116106c857829003601f168201915b5050505050908060040180546106fa90613af1565b80601f016020809104026020016040519081016040528092919081815260200182805461072690613af1565b80156107735780601f1061074857610100808354040283529160200191610773565b820191906000526020600020905b81548152906001019060200180831161075657829003601f168201915b50505050509080600501805461078890613af1565b80601f01602080910402602001604051908101604052809291908181526020018280546107b490613af1565b80156108015780601f106107d657610100808354040283529160200191610801565b820191906000526020600020905b8154815290600101906020018083116107e457829003601f168201915b50505050509080600601805461081690613af1565b80601f016020809104026020016040519081016040528092919081815260200182805461084290613af1565b801561088f5780601f106108645761010080835404028352916020019161088f565b820191906000526020600020905b81548152906001019060200180831161087257829003601f168201915b5050505050908060070180546108a490613af1565b80601f01602080910402602001604051908101604052809291908181526020018280546108d090613af1565b801561091d5780601f106108f25761010080835404028352916020019161091d565b820191906000526020600020905b81548152906001019060200180831161090057829003601f168201915b5050505050908060080160009054906101000a900473ffffffffffffffffffffffffffffffffffffffff169080600901805461095890613af1565b80601f016020809104026020016040519081016040528092919081815260200182805461098490613af1565b80156109d15780601f106109a6576101008083540402835291602001916109d1565b820191906000526020600020905b8154815290600101906020018083116109b457829003601f168201915b50505050509080600a0180546109e690613af1565b80601f0160208091040260200160405190810160405280929190818152602001828054610a1290613af1565b8015610a5f5780601f10610a3457610100808354040283529160200191610a5f565b820191906000526020600020905b815481529060010190602001808311610a4257829003601f168201915b50505050509080600b0160009054906101000a900460ff1690508c565b60008133604051602001610a91929190613b6a565b6040516020818303038152906040528051906020012090506002600082815260200190815260200160002060010160169054906101000a900460ff16610b0c576040517f08c379a0000000000000000000000000000000000000000000000000000000008152600401610b0390613be2565b60405180910390fd5b3373ffffffffffffffffffffffffffffffffffffffff166002600083815260200190815260200160002060010160009054906101000a900473ffffffffffffffffffffffffffffffffffffffff1673ffffffffffffffffffffffffffffffffffffffff1614610bb0576040517f08c379a0000000000000000000000000000000000000000000000000000000008152600401610ba790613c4e565b60405180910390fd5b60016002600083815260200190815260200160002060010160156101000a81548160ff0219169083151502179055507f465d2c56bf0295e3b4fe188527a79c56456e1d62892dc043f6dfa1fce9a8a1428233604051610c10929190613c6e565b60405180910390a15050565b60606003805480602002602001604051908101604052809291908181526020018280548015610ca057602002820191906000526020600020905b8160009054906101000a900473ffffffffffffffffffffffffffffffffffffffff1673ffffffffffffffffffffffffffffffffffffffff1681526020019060010190808311610c56575b5050505050905090565b60008133604051602001610cbf929190613b6a565b6040516020818303038152906040528051906020012090506002600082815260200190815260200160002060010160169054906101000a900460ff16610d3a576040517f08c379a0000000000000000000000000000000000000000000000000000000008152600401610d3190613be2565b60405180910390fd5b3373ffffffffffffffffffffffffffffffffffffffff166002600083815260200190815260200160002060010160009054906101000a900473ffffffffffffffffffffffffffffffffffffffff1673ffffffffffffffffffffffffffffffffffffffff1614610dde576040517f08c379a0000000000000000000000000000000000000000000000000000000008152600401610dd590613ce3565b60405180910390fd5b60026000828152602001908152602001600020600080820160006101000a81549073ffffffffffffffffffffffffffffffffffffffff02191690556001820160006101000a81549073ffffffffffffffffffffffffffffffffffffffff02191690556001820160146101000a81549060ff02191690556001820160156101000a81549060ff02191690556001820160166101000a81549060ff021916905550507fbacaa6fbdd1ebfc4402702aa9c5b8962c81b9d7be52efc0a06eef3a12b4e9a378233604051610eaf929190613c6e565b60405180910390a15050565b6060600560008473ffffffffffffffffffffffffffffffffffffffff1673ffffffffffffffffffffffffffffffffffffffff16815260200190815260200160002060008373ffffffffffffffffffffffffffffffffffffffff1673ffffffffffffffffffffffffffffffffffffffff168152602001908152602001600020805480602002602001604051908101604052809291908181526020016000905b82821015611005578382906000526020600020018054610f7890613af1565b80601f0160208091040260200160405190810160405280929190818152602001828054610fa490613af1565b8015610ff15780601f10610fc657610100808354040283529160200191610ff1565b820191906000526020600020905b815481529060010190602001808311610fd457829003601f168201915b505050505081526020019060010190610f59565b50505050905092915050565b6006602052826000526040600020602052816000526040600020818154811061103957600080fd5b906000526020600020016000925092505050805461105690613af1565b80601f016020809104026020016040519081016040528092919081815260200182805461108290613af1565b80156110cf5780601f106110a4576101008083540402835291602001916110cf565b820191906000526020600020905b8154815290600101906020018083116110b257829003601f168201915b505050505081565b600160003373ffffffffffffffffffffffffffffffffffffffff1673ffffffffffffffffffffffffffffffffffffffff16815260200190815260200160002060050160149054906101000a900460ff16611166576040517f08c379a000000000000000000000000000000000000000000000000000000000815260040161115d90613d75565b60405180910390fd5b6111708233611661565b6111af576040517f08c379a00000000000000000000000000000000000000000000000000000000081526004016111a690613de1565b60405180910390fd5b600660003373ffffffffffffffffffffffffffffffffffffffff1673ffffffffffffffffffffffffffffffffffffffff16815260200190815260200160002060008373ffffffffffffffffffffffffffffffffffffffff1673ffffffffffffffffffffffffffffffffffffffff16815260200190815260200160002081908060018154018082558091505060019003906000526020600020016000909190919091509080519060200190611264929190612d03565b507f4f3e584412b404b8ea3e8ae1652df00170eb8b52474dece1592acffd5d77144333838360405161129893929190613e01565b60405180910390a15050565b6060600480548060200260200160405190810160405280929190818152602001828054801561132857602002820191906000526020600020905b8160009054906101000a900473ffffffffffffffffffffffffffffffffffffffff1673ffffffffffffffffffffffffffffffffffffffff16815260200190600101908083116112de575b5050505050905090565b6000803373ffffffffffffffffffffffffffffffffffffffff1673ffffffffffffffffffffffffffffffffffffffff168152602001908152602001600020600b0160009054906101000a900460ff166113c0576040517f08c379a00000000000000000000000000000000000000000000000000000000081526004016113b790613e8b565b60405180910390fd5b6113ca3383611661565b611409576040517f08c379a000000000000000000000000000000000000000000000000000000000815260040161140090613ef7565b60405180910390fd5b600560003373ffffffffffffffffffffffffffffffffffffffff1673ffffffffffffffffffffffffffffffffffffffff16815260200190815260200160002060008373ffffffffffffffffffffffffffffffffffffffff1673ffffffffffffffffffffffffffffffffffffffff168152602001908152602001600020819080600181540180825580915050600190039060005260206000200160009091909190915090805190602001906114be929190612d03565b507f8023a7ca475404bb682ee6e09b92c8b51eef2274132c3fdfc13b740300a6ea5b3383836040516114f293929190613e01565b60405180910390a15050565b6005602052826000526040600020602052816000526040600020818154811061152657600080fd5b906000526020600020016000925092505050805461154390613af1565b80601f016020809104026020016040519081016040528092919081815260200182805461156f90613af1565b80156115bc5780601f10611591576101008083540402835291602001916115bc565b820191906000526020600020905b81548152906001019060200180831161159f57829003601f168201915b505050505081565b60026020528060005260406000206000915090508060000160009054906101000a900473ffffffffffffffffffffffffffffffffffffffff16908060010160009054906101000a900473ffffffffffffffffffffffffffffffffffffffff16908060010160149054906101000a900460ff16908060010160159054906101000a900460ff16908060010160169054906101000a900460ff16905085565b6000808383604051602001611677929190613b6a565b6040516020818303038152906040528051906020012090506002600082815260200190815260200160002060010160149054906101000a900460ff1680156116df57506002600082815260200190815260200160002060010160159054906101000a900460ff165b91505092915050565b600160205280600052604060002060009150905080600001805461170b90613af1565b80601f016020809104026020016040519081016040528092919081815260200182805461173790613af1565b80156117845780601f1061175957610100808354040283529160200191611784565b820191906000526020600020905b81548152906001019060200180831161176757829003601f168201915b50505050509080600101805461179990613af1565b80601f01602080910402602001604051908101604052809291908181526020018280546117c590613af1565b80156118125780601f106117e757610100808354040283529160200191611812565b820191906000526020600020905b8154815290600101906020018083116117f557829003601f168201915b50505050509080600201805461182790613af1565b80601f016020809104026020016040519081016040528092919081815260200182805461185390613af1565b80156118a05780601f10611875576101008083540402835291602001916118a0565b820191906000526020600020905b81548152906001019060200180831161188357829003601f168201915b5050505050908060030180546118b590613af1565b80601f01602080910402602001604051908101604052809291908181526020018280546118e190613af1565b801561192e5780601f106119035761010080835404028352916020019161192e565b820191906000526020600020905b81548152906001019060200180831161191157829003601f168201915b50505050509080600401805461194390613af1565b80601f016020809104026020016040519081016040528092919081815260200182805461196f90613af1565b80156119bc5780601f10611991576101008083540402835291602001916119bc565b820191906000526020600020905b81548152906001019060200180831161199f57829003601f168201915b5050505050908060050160009054906101000a900473ffffffffffffffffffffffffffffffffffffffff16908060050160149054906101000a900460ff1690806006018054611a0a90613af1565b80601f0160208091040260200160405190810160405280929190818152602001828054611a3690613af1565b8015611a835780601f10611a5857610100808354040283529160200191611a83565b820191906000526020600020905b815481529060010190602001808311611a6657829003601f168201915b505050505090806007018054611a9890613af1565b80601f0160208091040260200160405190810160405280929190818152602001828054611ac490613af1565b8015611b115780601f10611ae657610100808354040283529160200191611b11565b820191906000526020600020905b815481529060010190602001808311611af457829003601f168201915b505050505090806008018054611b2690613af1565b80601f0160208091040260200160405190810160405280929190818152602001828054611b5290613af1565b8015611b9f5780601f10611b7457610100808354040283529160200191611b9f565b820191906000526020600020905b815481529060010190602001808311611b8257829003601f168201915b505050505090508a565b6060806060806060806060806000600160008b73ffffffffffffffffffffffffffffffffffffffff1673ffffffffffffffffffffffffffffffffffffffff16815260200190815260200160002060405180610140016040529081600082018054611c1290613af1565b80601f0160208091040260200160405190810160405280929190818152602001828054611c3e90613af1565b8015611c8b5780601f10611c6057610100808354040283529160200191611c8b565b820191906000526020600020905b815481529060010190602001808311611c6e57829003601f168201915b50505050508152602001600182018054611ca490613af1565b80601f0160208091040260200160405190810160405280929190818152602001828054611cd090613af1565b8015611d1d5780601f10611cf257610100808354040283529160200191611d1d565b820191906000526020600020905b815481529060010190602001808311611d0057829003601f168201915b50505050508152602001600282018054611d3690613af1565b80601f0160208091040260200160405190810160405280929190818152602001828054611d6290613af1565b8015611daf5780601f10611d8457610100808354040283529160200191611daf565b820191906000526020600020905b815481529060010190602001808311611d9257829003601f168201915b50505050508152602001600382018054611dc890613af1565b80601f0160208091040260200160405190810160405280929190818152602001828054611df490613af1565b8015611e415780601f10611e1657610100808354040283529160200191611e41565b820191906000526020600020905b815481529060010190602001808311611e2457829003601f168201915b50505050508152602001600482018054611e5a90613af1565b80601f0160208091040260200160405190810160405280929190818152602001828054611e8690613af1565b8015611ed35780601f10611ea857610100808354040283529160200191611ed3565b820191906000526020600020905b815481529060010190602001808311611eb657829003601f168201915b505050505081526020016005820160009054906101000a900473ffffffffffffffffffffffffffffffffffffffff1673ffffffffffffffffffffffffffffffffffffffff1673ffffffffffffffffffffffffffffffffffffffff1681526020016005820160149054906101000a900460ff16151515158152602001600682018054611f5d90613af1565b80601f0160208091040260200160405190810160405280929190818152602001828054611f8990613af1565b8015611fd65780601f10611fab57610100808354040283529160200191611fd6565b820191906000526020600020905b815481529060010190602001808311611fb957829003601f168201915b50505050508152602001600782018054611fef90613af1565b80601f016020809104026020016040519081016040528092919081815260200182805461201b90613af1565b80156120685780601f1061203d57610100808354040283529160200191612068565b820191906000526020600020905b81548152906001019060200180831161204b57829003601f168201915b5050505050815260200160088201805461208190613af1565b80601f01602080910402602001604051908101604052809291908181526020018280546120ad90613af1565b80156120fa5780601f106120cf576101008083540402835291602001916120fa565b820191906000526020600020905b8154815290600101906020018083116120dd57829003601f168201915b50505050508152505090508060c00151612149576040517f08c379a000000000000000000000000000000000000000000000000000000000815260040161214090613f63565b60405180910390fd5b806000015181602001518260400151836060015184608001518560e001518661010001518761012001519850985098509850985098509850985050919395975091939597565b600160003373ffffffffffffffffffffffffffffffffffffffff1673ffffffffffffffffffffffffffffffffffffffff16815260200190815260200160002060050160149054906101000a900460ff161561221f576040517f08c379a000000000000000000000000000000000000000000000000000000000815260040161221690613fcf565b60405180910390fd5b6040518061014001604052808981526020018881526020018781526020018681526020018581526020013373ffffffffffffffffffffffffffffffffffffffff16815260200160011515815260200182815260200184815260200183815250600160003373ffffffffffffffffffffffffffffffffffffffff1673ffffffffffffffffffffffffffffffffffffffff16815260200190815260200160002060008201518160000190805190602001906122d9929190612d03565b5060208201518160010190805190602001906122f6929190612d03565b506040820151816002019080519060200190612313929190612d03565b506060820151816003019080519060200190612330929190612d03565b50608082015181600401908051906020019061234d929190612d03565b5060a08201518160050160006101000a81548173ffffffffffffffffffffffffffffffffffffffff021916908373ffffffffffffffffffffffffffffffffffffffff16021790555060c08201518160050160146101000a81548160ff02191690831515021790555060e08201518160060190805190602001906123d1929190612d03565b506101008201518160070190805190602001906123ef929190612d03565b5061012082015181600801908051906020019061240d929190612d03565b509050506004339080600181540180825580915050600190039060005260206000200160009091909190916101000a81548173ffffffffffffffffffffffffffffffffffffffff021916908373ffffffffffffffffffffffffffffffffffffffff1602179055507f2dc8105a7545248d0e354c4c6b02fb583071cc719fb4bef1ca74d72d475570bc336040516124a39190612e5e565b60405180910390a15050505050505050565b6000803373ffffffffffffffffffffffffffffffffffffffff1673ffffffffffffffffffffffffffffffffffffffff168152602001908152602001600020600b0160009054906101000a900460ff16612543576040517f08c379a000000000000000000000000000000000000000000000000000000000815260040161253a9061403b565b60405180910390fd5b600160008273ffffffffffffffffffffffffffffffffffffffff1673ffffffffffffffffffffffffffffffffffffffff16815260200190815260200160002060050160149054906101000a900460ff166125d2576040517f08c379a00000000000000000000000000000000000000000000000000000000081526004016125c990613f63565b60405180910390fd5b600033826040516020016125e7929190613b6a565b6040516020818303038152906040528051906020012090506002600082815260200190815260200160002060010160169054906101000a900460ff1615612663576040517f08c379a000000000000000000000000000000000000000000000000000000000815260040161265a906140a7565b60405180910390fd5b6040518060a001604052803373ffffffffffffffffffffffffffffffffffffffff1681526020018373ffffffffffffffffffffffffffffffffffffffff168152602001600115158152602001600015158152602001600115158152506002600083815260200190815260200160002060008201518160000160006101000a81548173ffffffffffffffffffffffffffffffffffffffff021916908373ffffffffffffffffffffffffffffffffffffffff16021790555060208201518160010160006101000a81548173ffffffffffffffffffffffffffffffffffffffff021916908373ffffffffffffffffffffffffffffffffffffffff16021790555060408201518160010160146101000a81548160ff02191690831515021790555060608201518160010160156101000a81548160ff02191690831515021790555060808201518160010160166101000a81548160ff0219169083151502179055509050507ff65067ce934150f21861910aaa332d4381f58128789d698cb8cee44f251b7cab33836040516127f4929190613c6e565b60405180910390a15050565b6003818154811061281057600080fd5b906000526020600020016000915054906101000a900473ffffffffffffffffffffffffffffffffffffffff1681565b6000803373ffffffffffffffffffffffffffffffffffffffff1673ffffffffffffffffffffffffffffffffffffffff168152602001908152602001600020600b0160009054906101000a900460ff16156128ce576040517f08c379a00000000000000000000000000000000000000000000000000000000081526004016128c590614113565b60405180910390fd5b6040518061018001604052808b81526020018a81526020018981526020018881526020018781526020018681526020018581526020018481526020013373ffffffffffffffffffffffffffffffffffffffff168152602001838152602001828152602001600115158152506000803373ffffffffffffffffffffffffffffffffffffffff1673ffffffffffffffffffffffffffffffffffffffff1681526020019081526020016000206000820151816000019080519060200190612993929190612d03565b5060208201518160010190805190602001906129b0929190612d03565b5060408201518160020190805190602001906129cd929190612d03565b5060608201518160030190805190602001906129ea929190612d03565b506080820151816004019080519060200190612a07929190612d03565b5060a0820151816005019080519060200190612a24929190612d03565b5060c0820151816006019080519060200190612a41929190612d03565b5060e0820151816007019080519060200190612a5e929190612d03565b506101008201518160080160006101000a81548173ffffffffffffffffffffffffffffffffffffffff021916908373ffffffffffffffffffffffffffffffffffffffff160217905550610120820151816009019080519060200190612ac4929190612d03565b5061014082015181600a019080519060200190612ae2929190612d03565b5061016082015181600b0160006101000a81548160ff0219169083151502179055509050506003339080600181540180825580915050600190039060005260206000200160009091909190916101000a81548173ffffffffffffffffffffffffffffffffffffffff021916908373ffffffffffffffffffffffffffffffffffffffff1602179055507fc9fa2003fca4ce0dfc8cb0deae32266b715536df6685365b05b5be96ede8e49c33604051612b999190612e5e565b60405180910390a150505050505050505050565b6060600660008473ffffffffffffffffffffffffffffffffffffffff1673ffffffffffffffffffffffffffffffffffffffff16815260200190815260200160002060008373ffffffffffffffffffffffffffffffffffffffff1673ffffffffffffffffffffffffffffffffffffffff168152602001908152602001600020805480602002602001604051908101604052809291908181526020016000905b82821015612cf7578382906000526020600020018054612c6a90613af1565b80601f0160208091040260200160405190810160405280929190818152602001828054612c9690613af1565b8015612ce35780601f10612cb857610100808354040283529160200191612ce3565b820191906000526020600020905b815481529060010190602001808311612cc657829003601f168201915b505050505081526020019060010190612c4b565b50505050905092915050565b828054612d0f90613af1565b90600052602060002090601f016020900481019282612d315760008555612d78565b82601f10612d4a57805160ff1916838001178555612d78565b82800160010185558215612d78579182015b82811115612d77578251825591602001919060010190612d5c565b5b509050612d859190612d89565b5090565b5b80821115612da2576000816000905550600101612d8a565b5090565b6000604051905090565b600080fd5b600080fd5b6000819050919050565b612dcd81612dba565b8114612dd857600080fd5b50565b600081359050612dea81612dc4565b92915050565b600060208284031215612e0657612e05612db0565b5b6000612e1484828501612ddb565b91505092915050565b600073ffffffffffffffffffffffffffffffffffffffff82169050919050565b6000612e4882612e1d565b9050919050565b612e5881612e3d565b82525050565b6000602082019050612e736000830184612e4f565b92915050565b612e8281612e3d565b8114612e8d57600080fd5b50565b600081359050612e9f81612e79565b92915050565b600060208284031215612ebb57612eba612db0565b5b6000612ec984828501612e90565b91505092915050565b600081519050919050565b600082825260208201905092915050565b60005b83811015612f0c578082015181840152602081019050612ef1565b83811115612f1b576000848401525b50505050565b6000601f19601f8301169050919050565b6000612f3d82612ed2565b612f478185612edd565b9350612f57818560208601612eee565b612f6081612f21565b840191505092915050565b60008115159050919050565b612f8081612f6b565b82525050565b6000610180820190508181036000830152612fa1818f612f32565b90508181036020830152612fb5818e612f32565b90508181036040830152612fc9818d612f32565b90508181036060830152612fdd818c612f32565b90508181036080830152612ff1818b612f32565b905081810360a0830152613005818a612f32565b905081810360c08301526130198189612f32565b905081810360e083015261302d8188612f32565b905061303d610100830187612e4f565b8181036101208301526130508186612f32565b90508181036101408301526130658185612f32565b9050613075610160830184612f77565b9d9c50505050505050505050505050565b600081519050919050565b600082825260208201905092915050565b6000819050602082019050919050565b6130bb81612e3d565b82525050565b60006130cd83836130b2565b60208301905092915050565b6000602082019050919050565b60006130f182613086565b6130fb8185613091565b9350613106836130a2565b8060005b8381101561313757815161311e88826130c1565b9750613129836130d9565b92505060018101905061310a565b5085935050505092915050565b6000602082019050818103600083015261315e81846130e6565b905092915050565b6000806040838503121561317d5761317c612db0565b5b600061318b85828601612e90565b925050602061319c85828601612e90565b9150509250929050565b600081519050919050565b600082825260208201905092915050565b6000819050602082019050919050565b600082825260208201905092915050565b60006131ee82612ed2565b6131f881856131d2565b9350613208818560208601612eee565b61321181612f21565b840191505092915050565b600061322883836131e3565b905092915050565b6000602082019050919050565b6000613248826131a6565b61325281856131b1565b935083602082028501613264856131c2565b8060005b858110156132a05784840389528151613281858261321c565b945061328c83613230565b925060208a01995050600181019050613268565b50829750879550505050505092915050565b600060208201905081810360008301526132cc818461323d565b905092915050565b6000806000606084860312156132ed576132ec612db0565b5b60006132fb86828701612e90565b935050602061330c86828701612e90565b925050604061331d86828701612ddb565b9150509250925092565b600060208201905081810360008301526133418184612f32565b905092915050565b600080fd5b600080fd5b7f4e487b7100000000000000000000000000000000000000000000000000000000600052604160045260246000fd5b61338b82612f21565b810181811067ffffffffffffffff821117156133aa576133a9613353565b5b80604052505050565b60006133bd612da6565b90506133c98282613382565b919050565b600067ffffffffffffffff8211156133e9576133e8613353565b5b6133f282612f21565b9050602081019050919050565b82818337600083830152505050565b600061342161341c846133ce565b6133b3565b90508281526020810184848401111561343d5761343c61334e565b5b6134488482856133ff565b509392505050565b600082601f83011261346557613464613349565b5b813561347584826020860161340e565b91505092915050565b6000806040838503121561349557613494612db0565b5b60006134a385828601612e90565b925050602083013567ffffffffffffffff8111156134c4576134c3612db5565b5b6134d085828601613450565b9150509250929050565b6000819050919050565b6134ed816134da565b81146134f857600080fd5b50565b60008135905061350a816134e4565b92915050565b60006020828403121561352657613525612db0565b5b6000613534848285016134fb565b91505092915050565b600060a0820190506135526000830188612e4f565b61355f6020830187612e4f565b61356c6040830186612f77565b6135796060830185612f77565b6135866080830184612f77565b9695505050505050565b60006020820190506135a56000830184612f77565b92915050565b60006101408201905081810360008301526135c6818d612f32565b905081810360208301526135da818c612f32565b905081810360408301526135ee818b612f32565b90508181036060830152613602818a612f32565b905081810360808301526136168189612f32565b905061362560a0830188612e4f565b61363260c0830187612f77565b81810360e08301526136448186612f32565b90508181036101008301526136598185612f32565b905081810361012083015261366e8184612f32565b90509b9a5050505050505050505050565b600061010082019050818103600083015261369a818b612f32565b905081810360208301526136ae818a612f32565b905081810360408301526136c28189612f32565b905081810360608301526136d68188612f32565b905081810360808301526136ea8187612f32565b905081810360a08301526136fe8186612f32565b905081810360c08301526137128185612f32565b905081810360e08301526137268184612f32565b90509998505050505050505050565b600080600080600080600080610100898b03121561375657613755612db0565b5b600089013567ffffffffffffffff81111561377457613773612db5565b5b6137808b828c01613450565b985050602089013567ffffffffffffffff8111156137a1576137a0612db5565b5b6137ad8b828c01613450565b975050604089013567ffffffffffffffff8111156137ce576137cd612db5565b5b6137da8b828c01613450565b965050606089013567ffffffffffffffff8111156137fb576137fa612db5565b5b6138078b828c01613450565b955050608089013567ffffffffffffffff81111561382857613827612db5565b5b6138348b828c01613450565b94505060a089013567ffffffffffffffff81111561385557613854612db5565b5b6138618b828c01613450565b93505060c089013567ffffffffffffffff81111561388257613881612db5565b5b61388e8b828c01613450565b92505060e089013567ffffffffffffffff8111156138af576138ae612db5565b5b6138bb8b828c01613450565b9150509295985092959890939650565b6000806000806000806000806000806101408b8d0312156138ef576138ee612db0565b5b60008b013567ffffffffffffffff81111561390d5761390c612db5565b5b6139198d828e01613450565b9a505060208b013567ffffffffffffffff81111561393a57613939612db5565b5b6139468d828e01613450565b99505060408b013567ffffffffffffffff81111561396757613966612db5565b5b6139738d828e01613450565b98505060608b013567ffffffffffffffff81111561399457613993612db5565b5b6139a08d828e01613450565b97505060808b013567ffffffffffffffff8111156139c1576139c0612db5565b5b6139cd8d828e01613450565b96505060a08b013567ffffffffffffffff8111156139ee576139ed612db5565b5b6139fa8d828e01613450565b95505060c08b013567ffffffffffffffff811115613a1b57613a1a612db5565b5b613a278d828e01613450565b94505060e08b013567ffffffffffffffff811115613a4857613a47612db5565b5b613a548d828e01613450565b9350506101008b013567ffffffffffffffff811115613a7657613a75612db5565b5b613a828d828e01613450565b9250506101208b013567ffffffffffffffff811115613aa457613aa3612db5565b5b613ab08d828e01613450565b9150509295989b9194979a5092959850565b7f4e487b7100000000000000000000000000000000000000000000000000000000600052602260045260246000fd5b60006002820490506001821680613b0957607f821691505b602082108103613b1c57613b1b613ac2565b5b50919050565b60008160601b9050919050565b6000613b3a82613b22565b9050919050565b6000613b4c82613b2f565b9050919050565b613b64613b5f82612e3d565b613b41565b82525050565b6000613b768285613b53565b601482019150613b868284613b53565b6014820191508190509392505050565b7f5265717565737420646f6573206e6f7420657869737400000000000000000000600082015250565b6000613bcc601683612edd565b9150613bd782613b96565b602082019050919050565b60006020820190508181036000830152613bfb81613bbf565b9050919050565b7f4f6e6c7920646f63746f722063616e20617070726f7665000000000000000000600082015250565b6000613c38601783612edd565b9150613c4382613c02565b602082019050919050565b60006020820190508181036000830152613c6781613c2b565b9050919050565b6000604082019050613c836000830185612e4f565b613c906020830184612e4f565b9392505050565b7f4f6e6c7920646f63746f722063616e2072656a65637400000000000000000000600082015250565b6000613ccd601683612edd565b9150613cd882613c97565b602082019050919050565b60006020820190508181036000830152613cfc81613cc0565b9050919050565b7f4f6e6c7920646f63746f722063616e2073656e6420707265736372697074696f60008201527f6e73000000000000000000000000000000000000000000000000000000000000602082015250565b6000613d5f602283612edd565b9150613d6a82613d03565b604082019050919050565b60006020820190508181036000830152613d8e81613d52565b9050919050565b7f446f63746f72206e6f7420617070726f7665642062792070617469656e740000600082015250565b6000613dcb601e83612edd565b9150613dd682613d95565b602082019050919050565b60006020820190508181036000830152613dfa81613dbe565b9050919050565b6000606082019050613e166000830186612e4f565b613e236020830185612e4f565b8181036040830152613e358184612f32565b9050949350505050565b7f4f6e6c792070617469656e742063616e2073656e64207265706f727473000000600082015250565b6000613e75601d83612edd565b9150613e8082613e3f565b602082019050919050565b60006020820190508181036000830152613ea481613e68565b9050919050565b7f50617469656e74206e6f7420617070726f76656420646f63746f720000000000600082015250565b6000613ee1601b83612edd565b9150613eec82613eab565b602082019050919050565b60006020820190508181036000830152613f1081613ed4565b9050919050565b7f446f63746f72206e6f7420726567697374657265640000000000000000000000600082015250565b6000613f4d601583612edd565b9150613f5882613f17565b602082019050919050565b60006020820190508181036000830152613f7c81613f40565b9050919050565b7f446f63746f7220616c7265616479207265676973746572656400000000000000600082015250565b6000613fb9601983612edd565b9150613fc482613f83565b602082019050919050565b60006020820190508181036000830152613fe881613fac565b9050919050565b7f50617469656e74206e6f74207265676973746572656400000000000000000000600082015250565b6000614025601683612edd565b915061403082613fef565b602082019050919050565b6000602082019050818103600083015261405481614018565b9050919050565b7f5265717565737420616c72656164792065786973747300000000000000000000600082015250565b6000614091601683612edd565b915061409c8261405b565b602082019050919050565b600060208201905081810360008301526140c081614084565b9050919050565b7f50617469656e7420616c72656164792072656769737465726564000000000000600082015250565b60006140fd601a83612edd565b9150614108826140c7565b602082019050919050565b6000602082019050818103600083015261412c816140f0565b905091905056fea26469706673582212201b8c1a45facc03625c4bc51f9e3ae9672da0de98c24135de2adea0f184780d3c64736f6c634300080d0033",
  "immutableReferences": {},
  "source": "// SPDX-License-Identifier: MIT\r\npragma solidity ^0.8.13;\r\n\r\ncontract HealthSystem {\r\n    struct Patient {\r\n        string firstName;\r\n        string lastName;\r\n        string dateOfBirth;\r\n        string email;\r\n        string gender;\r\n        string patientAddress;\r\n        string phoneNumber;\r\n        string bloodGroup;\r\n        address walletAddress;\r\n        string insuranceProvider;\r\n        string policyNumber;\r\n        bool isRegistered;\r\n    }\r\n\r\n    struct Doctor {\r\n        string firstName;\r\n        string lastName;\r\n        string specialization;\r\n        string email;\r\n        string phoneNumber;\r\n        address walletAddress;\r\n        bool isRegistered;\r\n        string licensenumber;\r\n        string Doctoraddress;\r\n        string YearsExperience;\r\n    }\r\n\r\n    struct ConsultationRequest {\r\n        address patient;\r\n        address doctor;\r\n        bool approvedByPatient;\r\n        bool approvedByDoctor;\r\n        bool exists;\r\n    }\r\n\r\n    mapping(address => Patient) public patients;\r\n    mapping(address => Doctor) public doctors;\r\n    mapping(bytes32 => ConsultationRequest) public requests;\r\n\r\n    address[] public registeredPatients;\r\n    address[] public registeredDoctors;\r\n\r\n    mapping(address => mapping(address => string[])) public patientReports;\r\n    mapping(address => mapping(address => string[])) public doctorPrescriptions;\r\n\r\n    event PatientRegistered(address patient);\r\n    event DoctorRegistered(address doctor);\r\n    event ConsultationRequested(address patient, address doctor);\r\n    event ConsultationApproved(address patient, address doctor);\r\n    event ConsultationRejected(address patient, address doctor);\r\n    event ReportSent(address from, address to, string reportHash);\r\n    event PrescriptionSent(address from, address to, string prescriptionHash);\r\n\r\n    function registerPatient(\r\n        string memory _firstName,\r\n        string memory _lastName,\r\n        string memory _dateOfBirth,\r\n        string memory _email,\r\n        string memory _gender,\r\n        string memory _patientAddress,\r\n        string memory _phoneNumber,\r\n        string memory _bloodGroup,\r\n        string memory _insuranceProvider,\r\n        string memory _policyNumber\r\n    ) public {\r\n        require(!patients[msg.sender].isRegistered, \"Patient already registered\");\r\n        patients[msg.sender] = Patient({\r\n            firstName: _firstName,\r\n            lastName: _lastName,\r\n            dateOfBirth: _dateOfBirth,\r\n            email: _email,\r\n            gender: _gender,\r\n            patientAddress: _patientAddress,\r\n            phoneNumber: _phoneNumber,\r\n            bloodGroup: _bloodGroup,\r\n            walletAddress: msg.sender,\r\n            insuranceProvider: _insuranceProvider,\r\n            policyNumber: _policyNumber,\r\n            isRegistered: true\r\n        });\r\n        registeredPatients.push(msg.sender);\r\n        emit PatientRegistered(msg.sender);\r\n    }\r\n\r\n    function registerDoctor(\r\n        string memory _firstName,\r\n        string memory _lastName,\r\n        string memory _specialization,\r\n        string memory _email,\r\n        string memory _phoneNumber,\r\n        string memory _Address,\r\n        string memory _Experience,\r\n        string memory _LicenceNumber\r\n    ) public {\r\n        require(!doctors[msg.sender].isRegistered, \"Doctor already registered\");\r\n\r\n        doctors[msg.sender] = Doctor({\r\n            firstName: _firstName,\r\n            lastName: _lastName,\r\n            specialization: _specialization,\r\n            email: _email,\r\n            phoneNumber: _phoneNumber,\r\n            walletAddress: msg.sender,\r\n            isRegistered: true,\r\n            licensenumber: _LicenceNumber,\r\n            Doctoraddress: _Address,\r\n            YearsExperience: _Experience\r\n        });\r\n\r\n        registeredDoctors.push(msg.sender);\r\n        emit DoctorRegistered(msg.sender);\r\n    }\r\n\r\n    function getDoctorDetails(address _doctor) public view returns (\r\n        string memory firstName,\r\n        string memory lastName,\r\n        string memory specialization,\r\n        string memory email,\r\n        string memory phoneNumber,\r\n        string memory licensenumber,\r\n        string memory Doctoraddress,\r\n        string memory YearsExperience\r\n    ) {\r\n        Doctor memory d = doctors[_doctor];\r\n        require(d.isRegistered, \"Doctor not registered\");\r\n        return (\r\n            d.firstName,\r\n            d.lastName,\r\n            d.specialization,\r\n            d.email,\r\n            d.phoneNumber,\r\n            d.licensenumber,\r\n            d.Doctoraddress,\r\n            d.YearsExperience\r\n        );\r\n    }\r\n\r\n    function getAllRegisteredPatients() public view returns (address[] memory) {\r\n        return registeredPatients;\r\n    }\r\n\r\n    function getAllRegisteredDoctors() public view returns (address[] memory) {\r\n        return registeredDoctors;\r\n    }\r\n\r\n    function requestConsultation(address _doctor) public {\r\n        require(patients[msg.sender].isRegistered, \"Patient not registered\");\r\n        require(doctors[_doctor].isRegistered, \"Doctor not registered\");\r\n        bytes32 key = keccak256(abi.encodePacked(msg.sender, _doctor));\r\n        require(!requests[key].exists, \"Request already exists\");\r\n        requests[key] = ConsultationRequest({\r\n            patient: msg.sender,\r\n            doctor: _doctor,\r\n            approvedByPatient: true,\r\n            approvedByDoctor: false,\r\n            exists: true\r\n        });\r\n        emit ConsultationRequested(msg.sender, _doctor);\r\n    }\r\n\r\n    function doctorApproveConsultation(address _patient) public {\r\n        bytes32 key = keccak256(abi.encodePacked(_patient, msg.sender));\r\n        require(requests[key].exists, \"Request does not exist\");\r\n        require(requests[key].doctor == msg.sender, \"Only doctor can approve\");\r\n        requests[key].approvedByDoctor = true;\r\n        emit ConsultationApproved(_patient, msg.sender);\r\n    }\r\n\r\n    function doctorRejectConsultation(address _patient) public {\r\n        bytes32 key = keccak256(abi.encodePacked(_patient, msg.sender));\r\n        require(requests[key].exists, \"Request does not exist\");\r\n        require(requests[key].doctor == msg.sender, \"Only doctor can reject\");\r\n        delete requests[key];\r\n        emit ConsultationRejected(_patient, msg.sender);\r\n    }\r\n\r\n    function isApproved(address _patient, address _doctor) public view returns (bool) {\r\n        bytes32 key = keccak256(abi.encodePacked(_patient, _doctor));\r\n        return requests[key].approvedByPatient && requests[key].approvedByDoctor;\r\n    }\r\n\r\n    function sendPrescription(address _patient, string memory _prescriptionHash) public {\r\n        require(doctors[msg.sender].isRegistered, \"Only doctor can send prescriptions\");\r\n        require(isApproved(_patient, msg.sender), \"Doctor not approved by patient\");\r\n        doctorPrescriptions[msg.sender][_patient].push(_prescriptionHash);\r\n        emit PrescriptionSent(msg.sender, _patient, _prescriptionHash);\r\n    }\r\n\r\n    function sendReport(address _doctor, string memory _reportHash) public {\r\n        require(patients[msg.sender].isRegistered, \"Only patient can send reports\");\r\n        require(isApproved(msg.sender, _doctor), \"Patient not approved doctor\");\r\n        patientReports[msg.sender][_doctor].push(_reportHash);\r\n        emit ReportSent(msg.sender, _doctor, _reportHash);\r\n    }\r\n\r\n    // === NEW GETTER FUNCTIONS ===\r\n\r\n    function getPatientReports(address patient, address doctor) public view returns (string[] memory) {\r\n        return patientReports[patient][doctor];\r\n    }\r\n\r\n    function getDoctorPrescriptions(address doctor, address patient) public view returns (string[] memory) {\r\n        return doctorPrescriptions[doctor][patient];\r\n    }\r\n}\r\n",
  "sourcePath": "C:\\Users\\venka\\OneDrive\\Desktop\\EMR-blockchain-project\\truffle\\contracts\\HealthSystem.sol",
  "compiler": {
    "name": "solc",
    "version": "0.8.13+commit.abaa5c0e.Emscripten.clang"
  },
  "schemaVersion": "3.4.16",
  "updatedAt": "2025-06-30T07:46:28.602Z",
  "networkType": "ethereum",
  "devdoc": {
    "kind": "dev",
    "methods": {},
    "version": 1
  },
  "userdoc": {
    "kind": "user",
    "methods": {},
    "version": 1
  }
}