{
  "contractName": "HealthSystem",
  "abi": [
    {
      "inputs": [
        {
          "internalType": "uint256",
          "name": "",
          "type": "uint256"
        }
      ],
      "name": "doctorList",
      "outputs": [
        {
          "internalType": "address",
          "name": "",
          "type": "address"
        }
      ],
      "stateMutability": "view",
      "type": "function",
      "constant": true
    },
    {
      "inputs": [
        {
          "internalType": "address",
          "name": "",
          "type": "address"
        }
      ],
      "name": "doctors",
      "outputs": [
        {
          "internalType": "string",
          "name": "name",
          "type": "string"
        },
        {
          "internalType": "string",
          "name": "email",
          "type": "string"
        },
        {
          "internalType": "string",
          "name": "specialty",
          "type": "string"
        }
      ],
      "stateMutability": "view",
      "type": "function",
      "constant": true
    },
    {
      "inputs": [
        {
          "internalType": "uint256",
          "name": "",
          "type": "uint256"
        }
      ],
      "name": "meetings",
      "outputs": [
        {
          "internalType": "address",
          "name": "patient",
          "type": "address"
        },
        {
          "internalType": "address",
          "name": "doctor",
          "type": "address"
        },
        {
          "internalType": "string",
          "name": "description",
          "type": "string"
        },
        {
          "internalType": "string",
          "name": "time",
          "type": "string"
        },
        {
          "internalType": "bool",
          "name": "isVerified",
          "type": "bool"
        }
      ],
      "stateMutability": "view",
      "type": "function",
      "constant": true
    },
    {
      "inputs": [
        {
          "internalType": "address",
          "name": "",
          "type": "address"
        }
      ],
      "name": "patients",
      "outputs": [
        {
          "internalType": "string",
          "name": "name",
          "type": "string"
        },
        {
          "internalType": "string",
          "name": "email",
          "type": "string"
        },
        {
          "internalType": "string",
          "name": "fileHash",
          "type": "string"
        }
      ],
      "stateMutability": "view",
      "type": "function",
      "constant": true
    },
    {
      "inputs": [
        {
          "internalType": "address",
          "name": "",
          "type": "address"
        },
        {
          "internalType": "uint256",
          "name": "",
          "type": "uint256"
        }
      ],
      "name": "prescriptions",
      "outputs": [
        {
          "internalType": "string",
          "name": "",
          "type": "string"
        }
      ],
      "stateMutability": "view",
      "type": "function",
      "constant": true
    },
    {
      "inputs": [
        {
          "internalType": "string",
          "name": "_name",
          "type": "string"
        },
        {
          "internalType": "string",
          "name": "_email",
          "type": "string"
        }
      ],
      "name": "registerPatient",
      "outputs": [],
      "stateMutability": "nonpayable",
      "type": "function"
    },
    {
      "inputs": [
        {
          "internalType": "string",
          "name": "_name",
          "type": "string"
        },
        {
          "internalType": "string",
          "name": "_email",
          "type": "string"
        },
        {
          "internalType": "string",
          "name": "_specialty",
          "type": "string"
        }
      ],
      "name": "registerDoctor",
      "outputs": [],
      "stateMutability": "nonpayable",
      "type": "function"
    },
    {
      "inputs": [
        {
          "internalType": "string",
          "name": "_fileHash",
          "type": "string"
        }
      ],
      "name": "uploadRecord",
      "outputs": [],
      "stateMutability": "nonpayable",
      "type": "function"
    },
    {
      "inputs": [
        {
          "internalType": "address",
          "name": "_patient",
          "type": "address"
        },
        {
          "internalType": "string",
          "name": "_fileHash",
          "type": "string"
        }
      ],
      "name": "uploadPrescription",
      "outputs": [],
      "stateMutability": "nonpayable",
      "type": "function"
    },
    {
      "inputs": [
        {
          "internalType": "address",
          "name": "_patient",
          "type": "address"
        }
      ],
      "name": "getPrescriptions",
      "outputs": [
        {
          "internalType": "string[]",
          "name": "",
          "type": "string[]"
        }
      ],
      "stateMutability": "view",
      "type": "function",
      "constant": true
    },
    {
      "inputs": [
        {
          "internalType": "address",
          "name": "_doctor",
          "type": "address"
        },
        {
          "internalType": "string",
          "name": "_desc",
          "type": "string"
        },
        {
          "internalType": "string",
          "name": "_time",
          "type": "string"
        }
      ],
      "name": "createMeeting",
      "outputs": [],
      "stateMutability": "nonpayable",
      "type": "function"
    },
    {
      "inputs": [
        {
          "internalType": "uint256",
          "name": "_index",
          "type": "uint256"
        }
      ],
      "name": "acceptMeeting",
      "outputs": [],
      "stateMutability": "nonpayable",
      "type": "function"
    },
    {
      "inputs": [
        {
          "internalType": "address",
          "name": "_addr",
          "type": "address"
        }
      ],
      "name": "getPatient",
      "outputs": [
        {
          "internalType": "string",
          "name": "",
          "type": "string"
        },
        {
          "internalType": "string",
          "name": "",
          "type": "string"
        },
        {
          "internalType": "string",
          "name": "",
          "type": "string"
        }
      ],
      "stateMutability": "view",
      "type": "function",
      "constant": true
    },
    {
      "inputs": [
        {
          "internalType": "address",
          "name": "_addr",
          "type": "address"
        }
      ],
      "name": "getDoctor",
      "outputs": [
        {
          "internalType": "string",
          "name": "",
          "type": "string"
        },
        {
          "internalType": "string",
          "name": "",
          "type": "string"
        },
        {
          "internalType": "string",
          "name": "",
          "type": "string"
        }
      ],
      "stateMutability": "view",
      "type": "function",
      "constant": true
    },
    {
      "inputs": [],
      "name": "getDoctorList",
      "outputs": [
        {
          "internalType": "address[]",
          "name": "",
          "type": "address[]"
        }
      ],
      "stateMutability": "view",
      "type": "function",
      "constant": true
    },
    {
      "inputs": [
        {
          "internalType": "address",
          "name": "_doctor",
          "type": "address"
        }
      ],
      "name": "getDoctorMeetings",
      "outputs": [
        {
          "components": [
            {
              "internalType": "address",
              "name": "patient",
              "type": "address"
            },
            {
              "internalType": "address",
              "name": "doctor",
              "type": "address"
            },
            {
              "internalType": "string",
              "name": "description",
              "type": "string"
            },
            {
              "internalType": "string",
              "name": "time",
              "type": "string"
            },
            {
              "internalType": "bool",
              "name": "isVerified",
              "type": "bool"
            }
          ],
          "internalType": "struct HealthSystem.Meeting[]",
          "name": "",
          "type": "tuple[]"
        }
      ],
      "stateMutability": "view",
      "type": "function",
      "constant": true
    },
    {
      "inputs": [
        {
          "internalType": "address",
          "name": "_patient",
          "type": "address"
        }
      ],
      "name": "getPatientMeetings",
      "outputs": [
        {
          "components": [
            {
              "internalType": "address",
              "name": "patient",
              "type": "address"
            },
            {
              "internalType": "address",
              "name": "doctor",
              "type": "address"
            },
            {
              "internalType": "string",
              "name": "description",
              "type": "string"
            },
            {
              "internalType": "string",
              "name": "time",
              "type": "string"
            },
            {
              "internalType": "bool",
              "name": "isVerified",
              "type": "bool"
            }
          ],
          "internalType": "struct HealthSystem.Meeting[]",
          "name": "",
          "type": "tuple[]"
        }
      ],
      "stateMutability": "view",
      "type": "function",
      "constant": true
    }
  ],
  "bytecode": "0x608060405234801561001057600080fd5b50613059806100206000396000f3fe608060405234801561001057600080fd5b506004361061010b5760003560e01c806380911fa4116100a2578063b5368e2011610071578063b5368e20146102f8578063b7ae698b1461032a578063c8c22b6114610346578063da2a67ff14610362578063f8f3f382146103925761010b565b806380911fa4146102585780638460168a14610274578063a71aefc9146102a8578063a9583c22146102c65761010b565b806350c7a912116100de57806350c7a912146101d45780635b6ba8f3146101f0578063641480561461020c5780637fb869bb1461023c5761010b565b80630869cfbc14610110578063127ca4b41461014257806327f69d66146101725780632f04e064146101a2575b600080fd5b61012a60048036038101906101259190612431565b6103c2565b60405161013993929190612c0d565b60405180910390f35b61015c600480360381019061015791906126ad565b610584565b6040516101699190612b09565b60405180910390f35b61018c60048036038101906101879190612431565b6105c3565b6040516101999190612bc9565b60405180910390f35b6101bc60048036038101906101b79190612431565b610a7c565b6040516101cb93929190612c0d565b60405180910390f35b6101ee60048036038101906101e99190612616565b610ca2565b005b61020a600480360381019061020591906124ae565b610e4f565b005b6102266004803603810190610221919061252d565b6110e0565b6040516102339190612beb565b60405180910390f35b61025660048036038101906102519190612569565b611199565b005b610272600480360381019061026d91906125aa565b611282565b005b61028e600480360381019061028991906126ad565b6113d8565b60405161029f959493929190612b24565b60405180910390f35b6102b061157b565b6040516102bd9190612b85565b60405180910390f35b6102e060048036038101906102db9190612431565b611609565b6040516102ef93929190612c0d565b60405180910390f35b610312600480360381019061030d9190612431565b6117cb565b60405161032193929190612c0d565b60405180910390f35b610344600480360381019061033f919061245a565b6119f0565b005b610360600480360381019061035b91906126ad565b611b8e565b005b61037c60048036038101906103779190612431565b611cce565b6040516103899190612bc9565b60405180910390f35b6103ac60048036038101906103a79190612431565b612187565b6040516103b99190612ba7565b60405180910390f35b60006020528060005260406000206000915090508060000180546103e590612edc565b80601f016020809104026020016040519081016040528092919081815260200182805461041190612edc565b801561045e5780601f106104335761010080835404028352916020019161045e565b820191906000526020600020905b81548152906001019060200180831161044157829003601f168201915b50505050509080600101805461047390612edc565b80601f016020809104026020016040519081016040528092919081815260200182805461049f90612edc565b80156104ec5780601f106104c1576101008083540402835291602001916104ec565b820191906000526020600020905b8154815290600101906020018083116104cf57829003601f168201915b50505050509080600201805461050190612edc565b80601f016020809104026020016040519081016040528092919081815260200182805461052d90612edc565b801561057a5780601f1061054f5761010080835404028352916020019161057a565b820191906000526020600020905b81548152906001019060200180831161055d57829003601f168201915b5050505050905083565b6003818154811061059457600080fd5b906000526020600020016000915054906101000a900473ffffffffffffffffffffffffffffffffffffffff1681565b6060600080600090505b60048054905081101561069b578373ffffffffffffffffffffffffffffffffffffffff166004828154811061062b577f4e487b7100000000000000000000000000000000000000000000000000000000600052603260045260246000fd5b906000526020600020906005020160010160009054906101000a900473ffffffffffffffffffffffffffffffffffffffff1673ffffffffffffffffffffffffffffffffffffffff16141561068857818061068490612f0e565b9250505b808061069390612f0e565b9150506105cd565b5060008167ffffffffffffffff8111156106de577f4e487b7100000000000000000000000000000000000000000000000000000000600052604160045260246000fd5b60405190808252806020026020018201604052801561071757816020015b61070461229f565b8152602001906001900390816106fc5790505b509050600080600090505b600480549050811015610a70578573ffffffffffffffffffffffffffffffffffffffff1660048281548110610780577f4e487b7100000000000000000000000000000000000000000000000000000000600052603260045260246000fd5b906000526020600020906005020160010160009054906101000a900473ffffffffffffffffffffffffffffffffffffffff1673ffffffffffffffffffffffffffffffffffffffff161415610a5d5760048181548110610808577f4e487b7100000000000000000000000000000000000000000000000000000000600052603260045260246000fd5b90600052602060002090600502016040518060a00160405290816000820160009054906101000a900473ffffffffffffffffffffffffffffffffffffffff1673ffffffffffffffffffffffffffffffffffffffff1673ffffffffffffffffffffffffffffffffffffffff1681526020016001820160009054906101000a900473ffffffffffffffffffffffffffffffffffffffff1673ffffffffffffffffffffffffffffffffffffffff1673ffffffffffffffffffffffffffffffffffffffff1681526020016002820180546108dd90612edc565b80601f016020809104026020016040519081016040528092919081815260200182805461090990612edc565b80156109565780601f1061092b57610100808354040283529160200191610956565b820191906000526020600020905b81548152906001019060200180831161093957829003601f168201915b5050505050815260200160038201805461096f90612edc565b80601f016020809104026020016040519081016040528092919081815260200182805461099b90612edc565b80156109e85780601f106109bd576101008083540402835291602001916109e8565b820191906000526020600020905b8154815290600101906020018083116109cb57829003601f168201915b505050505081526020016004820160009054906101000a900460ff161515151581525050838380610a1890612f0e565b945081518110610a51577f4e487b7100000000000000000000000000000000000000000000000000000000600052603260045260246000fd5b60200260200101819052505b8080610a6890612f0e565b915050610722565b50819350505050919050565b60608060606000600160008673ffffffffffffffffffffffffffffffffffffffff1673ffffffffffffffffffffffffffffffffffffffff168152602001908152602001600020604051806060016040529081600082018054610add90612edc565b80601f0160208091040260200160405190810160405280929190818152602001828054610b0990612edc565b8015610b565780601f10610b2b57610100808354040283529160200191610b56565b820191906000526020600020905b815481529060010190602001808311610b3957829003601f168201915b50505050508152602001600182018054610b6f90612edc565b80601f0160208091040260200160405190810160405280929190818152602001828054610b9b90612edc565b8015610be85780601f10610bbd57610100808354040283529160200191610be8565b820191906000526020600020905b815481529060010190602001808311610bcb57829003601f168201915b50505050508152602001600282018054610c0190612edc565b80601f0160208091040260200160405190810160405280929190818152602001828054610c2d90612edc565b8015610c7a5780601f10610c4f57610100808354040283529160200191610c7a565b820191906000526020600020905b815481529060010190602001808311610c5d57829003601f168201915b5050505050815250509050806000015181602001518260400151935093509350509193909250565b6000600160003373ffffffffffffffffffffffffffffffffffffffff1673ffffffffffffffffffffffffffffffffffffffff1681526020019081526020016000206000018054610cf190612edc565b905014610d33576040517f08c379a0000000000000000000000000000000000000000000000000000000008152600401610d2a90612c79565b60405180910390fd5b604051806060016040528084815260200183815260200182815250600160003373ffffffffffffffffffffffffffffffffffffffff1673ffffffffffffffffffffffffffffffffffffffff1681526020019081526020016000206000820151816000019080519060200190610da99291906122fc565b506020820151816001019080519060200190610dc69291906122fc565b506040820151816002019080519060200190610de39291906122fc565b509050506003339080600181540180825580915050600190039060005260206000200160009091909190916101000a81548173ffffffffffffffffffffffffffffffffffffffff021916908373ffffffffffffffffffffffffffffffffffffffff160217905550505050565b60008060003373ffffffffffffffffffffffffffffffffffffffff1673ffffffffffffffffffffffffffffffffffffffff1681526020019081526020016000206000018054610e9d90612edc565b905011610edf576040517f08c379a0000000000000000000000000000000000000000000000000000000008152600401610ed690612cd9565b60405180910390fd5b6000600160008573ffffffffffffffffffffffffffffffffffffffff1673ffffffffffffffffffffffffffffffffffffffff1681526020019081526020016000206000018054610f2e90612edc565b905011610f70576040517f08c379a0000000000000000000000000000000000000000000000000000000008152600401610f6790612cb9565b60405180910390fd5b60046040518060a001604052803373ffffffffffffffffffffffffffffffffffffffff1681526020018573ffffffffffffffffffffffffffffffffffffffff16815260200184815260200183815260200160001515815250908060018154018082558091505060019003906000526020600020906005020160009091909190915060008201518160000160006101000a81548173ffffffffffffffffffffffffffffffffffffffff021916908373ffffffffffffffffffffffffffffffffffffffff16021790555060208201518160010160006101000a81548173ffffffffffffffffffffffffffffffffffffffff021916908373ffffffffffffffffffffffffffffffffffffffff160217905550604082015181600201908051906020019061109b9291906122fc565b5060608201518160030190805190602001906110b89291906122fc565b5060808201518160040160006101000a81548160ff0219169083151502179055505050505050565b600260205281600052604060002081815481106110fc57600080fd5b9060005260206000200160009150915050805461111890612edc565b80601f016020809104026020016040519081016040528092919081815260200182805461114490612edc565b80156111915780601f1061116657610100808354040283529160200191611191565b820191906000526020600020905b81548152906001019060200180831161117457829003601f168201915b505050505081565b60008060003373ffffffffffffffffffffffffffffffffffffffff1673ffffffffffffffffffffffffffffffffffffffff16815260200190815260200160002060000180546111e790612edc565b905011611229576040517f08c379a000000000000000000000000000000000000000000000000000000000815260040161122090612cd9565b60405180910390fd5b806000803373ffffffffffffffffffffffffffffffffffffffff1673ffffffffffffffffffffffffffffffffffffffff168152602001908152602001600020600201908051906020019061127e9291906122fc565b5050565b60008060003373ffffffffffffffffffffffffffffffffffffffff1673ffffffffffffffffffffffffffffffffffffffff16815260200190815260200160002060000180546112d090612edc565b905014611312576040517f08c379a000000000000000000000000000000000000000000000000000000000815260040161130990612c79565b60405180910390fd5b6040518060600160405280838152602001828152602001604051806020016040528060008152508152506000803373ffffffffffffffffffffffffffffffffffffffff1673ffffffffffffffffffffffffffffffffffffffff16815260200190815260200160002060008201518160000190805190602001906113969291906122fc565b5060208201518160010190805190602001906113b39291906122fc565b5060408201518160020190805190602001906113d09291906122fc565b509050505050565b600481815481106113e857600080fd5b90600052602060002090600502016000915090508060000160009054906101000a900473ffffffffffffffffffffffffffffffffffffffff16908060010160009054906101000a900473ffffffffffffffffffffffffffffffffffffffff169080600201805461145790612edc565b80601f016020809104026020016040519081016040528092919081815260200182805461148390612edc565b80156114d05780601f106114a5576101008083540402835291602001916114d0565b820191906000526020600020905b8154815290600101906020018083116114b357829003601f168201915b5050505050908060030180546114e590612edc565b80601f016020809104026020016040519081016040528092919081815260200182805461151190612edc565b801561155e5780601f106115335761010080835404028352916020019161155e565b820191906000526020600020905b81548152906001019060200180831161154157829003601f168201915b5050505050908060040160009054906101000a900460ff16905085565b606060038054806020026020016040519081016040528092919081815260200182805480156115ff57602002820191906000526020600020905b8160009054906101000a900473ffffffffffffffffffffffffffffffffffffffff1673ffffffffffffffffffffffffffffffffffffffff16815260200190600101908083116115b5575b5050505050905090565b600160205280600052604060002060009150905080600001805461162c90612edc565b80601f016020809104026020016040519081016040528092919081815260200182805461165890612edc565b80156116a55780601f1061167a576101008083540402835291602001916116a5565b820191906000526020600020905b81548152906001019060200180831161168857829003601f168201915b5050505050908060010180546116ba90612edc565b80601f01602080910402602001604051908101604052809291908181526020018280546116e690612edc565b80156117335780601f1061170857610100808354040283529160200191611733565b820191906000526020600020905b81548152906001019060200180831161171657829003601f168201915b50505050509080600201805461174890612edc565b80601f016020809104026020016040519081016040528092919081815260200182805461177490612edc565b80156117c15780601f10611796576101008083540402835291602001916117c1565b820191906000526020600020905b8154815290600101906020018083116117a457829003601f168201915b5050505050905083565b606080606060008060008673ffffffffffffffffffffffffffffffffffffffff1673ffffffffffffffffffffffffffffffffffffffff16815260200190815260200160002060405180606001604052908160008201805461182b90612edc565b80601f016020809104026020016040519081016040528092919081815260200182805461185790612edc565b80156118a45780601f10611879576101008083540402835291602001916118a4565b820191906000526020600020905b81548152906001019060200180831161188757829003601f168201915b505050505081526020016001820180546118bd90612edc565b80601f01602080910402602001604051908101604052809291908181526020018280546118e990612edc565b80156119365780601f1061190b57610100808354040283529160200191611936565b820191906000526020600020905b81548152906001019060200180831161191957829003601f168201915b5050505050815260200160028201805461194f90612edc565b80601f016020809104026020016040519081016040528092919081815260200182805461197b90612edc565b80156119c85780601f1061199d576101008083540402835291602001916119c8565b820191906000526020600020905b8154815290600101906020018083116119ab57829003601f168201915b5050505050815250509050806000015181602001518260400151935093509350509193909250565b6000600160003373ffffffffffffffffffffffffffffffffffffffff1673ffffffffffffffffffffffffffffffffffffffff1681526020019081526020016000206000018054611a3f90612edc565b905011611a81576040517f08c379a0000000000000000000000000000000000000000000000000000000008152600401611a7890612cf9565b60405180910390fd5b60008060008473ffffffffffffffffffffffffffffffffffffffff1673ffffffffffffffffffffffffffffffffffffffff1681526020019081526020016000206000018054611acf90612edc565b905011611b11576040517f08c379a0000000000000000000000000000000000000000000000000000000008152600401611b0890612c99565b60405180910390fd5b600260008373ffffffffffffffffffffffffffffffffffffffff1673ffffffffffffffffffffffffffffffffffffffff16815260200190815260200160002081908060018154018082558091505060019003906000526020600020016000909190919091509080519060200190611b899291906122fc565b505050565b3373ffffffffffffffffffffffffffffffffffffffff1660048281548110611bdf577f4e487b7100000000000000000000000000000000000000000000000000000000600052603260045260246000fd5b906000526020600020906005020160010160009054906101000a900473ffffffffffffffffffffffffffffffffffffffff1673ffffffffffffffffffffffffffffffffffffffff1614611c67576040517f08c379a0000000000000000000000000000000000000000000000000000000008152600401611c5e90612c59565b60405180910390fd5b600160048281548110611ca3577f4e487b7100000000000000000000000000000000000000000000000000000000600052603260045260246000fd5b906000526020600020906005020160040160006101000a81548160ff02191690831515021790555050565b6060600080600090505b600480549050811015611da6578373ffffffffffffffffffffffffffffffffffffffff1660048281548110611d36577f4e487b7100000000000000000000000000000000000000000000000000000000600052603260045260246000fd5b906000526020600020906005020160000160009054906101000a900473ffffffffffffffffffffffffffffffffffffffff1673ffffffffffffffffffffffffffffffffffffffff161415611d93578180611d8f90612f0e565b9250505b8080611d9e90612f0e565b915050611cd8565b5060008167ffffffffffffffff811115611de9577f4e487b7100000000000000000000000000000000000000000000000000000000600052604160045260246000fd5b604051908082528060200260200182016040528015611e2257816020015b611e0f61229f565b815260200190600190039081611e075790505b509050600080600090505b60048054905081101561217b578573ffffffffffffffffffffffffffffffffffffffff1660048281548110611e8b577f4e487b7100000000000000000000000000000000000000000000000000000000600052603260045260246000fd5b906000526020600020906005020160000160009054906101000a900473ffffffffffffffffffffffffffffffffffffffff1673ffffffffffffffffffffffffffffffffffffffff1614156121685760048181548110611f13577f4e487b7100000000000000000000000000000000000000000000000000000000600052603260045260246000fd5b90600052602060002090600502016040518060a00160405290816000820160009054906101000a900473ffffffffffffffffffffffffffffffffffffffff1673ffffffffffffffffffffffffffffffffffffffff1673ffffffffffffffffffffffffffffffffffffffff1681526020016001820160009054906101000a900473ffffffffffffffffffffffffffffffffffffffff1673ffffffffffffffffffffffffffffffffffffffff1673ffffffffffffffffffffffffffffffffffffffff168152602001600282018054611fe890612edc565b80601f016020809104026020016040519081016040528092919081815260200182805461201490612edc565b80156120615780601f1061203657610100808354040283529160200191612061565b820191906000526020600020905b81548152906001019060200180831161204457829003601f168201915b5050505050815260200160038201805461207a90612edc565b80601f01602080910402602001604051908101604052809291908181526020018280546120a690612edc565b80156120f35780601f106120c8576101008083540402835291602001916120f3565b820191906000526020600020905b8154815290600101906020018083116120d657829003601f168201915b505050505081526020016004820160009054906101000a900460ff16151515158152505083838061212390612f0e565b94508151811061215c577f4e487b7100000000000000000000000000000000000000000000000000000000600052603260045260246000fd5b60200260200101819052505b808061217390612f0e565b915050611e2d565b50819350505050919050565b6060600260008373ffffffffffffffffffffffffffffffffffffffff1673ffffffffffffffffffffffffffffffffffffffff168152602001908152602001600020805480602002602001604051908101604052809291908181526020016000905b8282101561229457838290600052602060002001805461220790612edc565b80601f016020809104026020016040519081016040528092919081815260200182805461223390612edc565b80156122805780601f1061225557610100808354040283529160200191612280565b820191906000526020600020905b81548152906001019060200180831161226357829003601f168201915b5050505050815260200190600101906121e8565b505050509050919050565b6040518060a00160405280600073ffffffffffffffffffffffffffffffffffffffff168152602001600073ffffffffffffffffffffffffffffffffffffffff16815260200160608152602001606081526020016000151581525090565b82805461230890612edc565b90600052602060002090601f01602090048101928261232a5760008555612371565b82601f1061234357805160ff1916838001178555612371565b82800160010185558215612371579182015b82811115612370578251825591602001919060010190612355565b5b50905061237e9190612382565b5090565b5b8082111561239b576000816000905550600101612383565b5090565b60006123b26123ad84612d4a565b612d19565b9050828152602081018484840111156123ca57600080fd5b6123d5848285612e9a565b509392505050565b6000813590506123ec81612ff5565b92915050565b600082601f83011261240357600080fd5b813561241384826020860161239f565b91505092915050565b60008135905061242b8161300c565b92915050565b60006020828403121561244357600080fd5b6000612451848285016123dd565b91505092915050565b6000806040838503121561246d57600080fd5b600061247b858286016123dd565b925050602083013567ffffffffffffffff81111561249857600080fd5b6124a4858286016123f2565b9150509250929050565b6000806000606084860312156124c357600080fd5b60006124d1868287016123dd565b935050602084013567ffffffffffffffff8111156124ee57600080fd5b6124fa868287016123f2565b925050604084013567ffffffffffffffff81111561251757600080fd5b612523868287016123f2565b9150509250925092565b6000806040838503121561254057600080fd5b600061254e858286016123dd565b925050602061255f8582860161241c565b9150509250929050565b60006020828403121561257b57600080fd5b600082013567ffffffffffffffff81111561259557600080fd5b6125a1848285016123f2565b91505092915050565b600080604083850312156125bd57600080fd5b600083013567ffffffffffffffff8111156125d757600080fd5b6125e3858286016123f2565b925050602083013567ffffffffffffffff81111561260057600080fd5b61260c858286016123f2565b9150509250929050565b60008060006060848603121561262b57600080fd5b600084013567ffffffffffffffff81111561264557600080fd5b612651868287016123f2565b935050602084013567ffffffffffffffff81111561266e57600080fd5b61267a868287016123f2565b925050604084013567ffffffffffffffff81111561269757600080fd5b6126a3868287016123f2565b9150509250925092565b6000602082840312156126bf57600080fd5b60006126cd8482850161241c565b91505092915050565b60006126e28383612716565b60208301905092915050565b60006126fa838361289a565b905092915050565b600061270e8383612a8c565b905092915050565b61271f81612e52565b82525050565b61272e81612e52565b82525050565b600061273f82612daa565b6127498185612dfd565b935061275483612d7a565b8060005b8381101561278557815161276c88826126d6565b975061277783612dd6565b925050600181019050612758565b5085935050505092915050565b600061279d82612db5565b6127a78185612e0e565b9350836020820285016127b985612d8a565b8060005b858110156127f557848403895281516127d685826126ee565b94506127e183612de3565b925060208a019950506001810190506127bd565b50829750879550505050505092915050565b600061281282612dc0565b61281c8185612e1f565b93508360208202850161282e85612d9a565b8060005b8581101561286a578484038952815161284b8582612702565b945061285683612df0565b925060208a01995050600181019050612832565b50829750879550505050505092915050565b61288581612e64565b82525050565b61289481612e64565b82525050565b60006128a582612dcb565b6128af8185612e30565b93506128bf818560208601612ea9565b6128c881612fe4565b840191505092915050565b60006128de82612dcb565b6128e88185612e41565b93506128f8818560208601612ea9565b61290181612fe4565b840191505092915050565b6000612919600c83612e41565b91507f556e617574686f72697a656400000000000000000000000000000000000000006000830152602082019050919050565b6000612959601283612e41565b91507f416c7265616479207265676973746572656400000000000000000000000000006000830152602082019050919050565b6000612999600f83612e41565b91507f496e76616c69642070617469656e7400000000000000000000000000000000006000830152602082019050919050565b60006129d9601083612e41565b91507f446f63746f72206e6f7420666f756e64000000000000000000000000000000006000830152602082019050919050565b6000612a19600d83612e41565b91507f4e6f7420612070617469656e74000000000000000000000000000000000000006000830152602082019050919050565b6000612a59601783612e41565b91507f4f6e6c7920646f63746f72732063616e2075706c6f61640000000000000000006000830152602082019050919050565b600060a083016000830151612aa46000860182612716565b506020830151612ab76020860182612716565b5060408301518482036040860152612acf828261289a565b91505060608301518482036060860152612ae9828261289a565b9150506080830151612afe608086018261287c565b508091505092915050565b6000602082019050612b1e6000830184612725565b92915050565b600060a082019050612b396000830188612725565b612b466020830187612725565b8181036040830152612b5881866128d3565b90508181036060830152612b6c81856128d3565b9050612b7b608083018461288b565b9695505050505050565b60006020820190508181036000830152612b9f8184612734565b905092915050565b60006020820190508181036000830152612bc18184612792565b905092915050565b60006020820190508181036000830152612be38184612807565b905092915050565b60006020820190508181036000830152612c0581846128d3565b905092915050565b60006060820190508181036000830152612c2781866128d3565b90508181036020830152612c3b81856128d3565b90508181036040830152612c4f81846128d3565b9050949350505050565b60006020820190508181036000830152612c728161290c565b9050919050565b60006020820190508181036000830152612c928161294c565b9050919050565b60006020820190508181036000830152612cb28161298c565b9050919050565b60006020820190508181036000830152612cd2816129cc565b9050919050565b60006020820190508181036000830152612cf281612a0c565b9050919050565b60006020820190508181036000830152612d1281612a4c565b9050919050565b6000604051905081810181811067ffffffffffffffff82111715612d4057612d3f612fb5565b5b8060405250919050565b600067ffffffffffffffff821115612d6557612d64612fb5565b5b601f19601f8301169050602081019050919050565b6000819050602082019050919050565b6000819050602082019050919050565b6000819050602082019050919050565b600081519050919050565b600081519050919050565b600081519050919050565b600081519050919050565b6000602082019050919050565b6000602082019050919050565b6000602082019050919050565b600082825260208201905092915050565b600082825260208201905092915050565b600082825260208201905092915050565b600082825260208201905092915050565b600082825260208201905092915050565b6000612e5d82612e70565b9050919050565b60008115159050919050565b600073ffffffffffffffffffffffffffffffffffffffff82169050919050565b6000819050919050565b82818337600083830152505050565b60005b83811015612ec7578082015181840152602081019050612eac565b83811115612ed6576000848401525b50505050565b60006002820490506001821680612ef457607f821691505b60208210811415612f0857612f07612f86565b5b50919050565b6000612f1982612e90565b91507fffffffffffffffffffffffffffffffffffffffffffffffffffffffffffffffff821415612f4c57612f4b612f57565b5b600182019050919050565b7f4e487b7100000000000000000000000000000000000000000000000000000000600052601160045260246000fd5b7f4e487b7100000000000000000000000000000000000000000000000000000000600052602260045260246000fd5b7f4e487b7100000000000000000000000000000000000000000000000000000000600052604160045260246000fd5b6000601f19601f8301169050919050565b612ffe81612e52565b811461300957600080fd5b50565b61301581612e90565b811461302057600080fd5b5056fea2646970667358221220550dfbbba50ef3fd14f742ec159d7419a2597a665716509d5ea15dda03b4348964736f6c63430008000033",
  "immutableReferences": {},
  "source": "// SPDX-License-Identifier: MIT\r\npragma solidity ^0.8.0;\r\n\r\ncontract HealthSystem {\r\n    struct Patient {\r\n        string name;\r\n        string email;\r\n        string fileHash;\r\n    }\r\n\r\n    struct Doctor {\r\n        string name;\r\n        string email;\r\n        string specialty;\r\n    }\r\n\r\n    struct Meeting {\r\n        address patient;\r\n        address doctor;\r\n        string description;\r\n        string time;\r\n        bool isVerified;\r\n    }\r\n\r\n    mapping(address => Patient) public patients;\r\n    mapping(address => Doctor) public doctors;\r\n    mapping(address => string[]) public prescriptions;\r\n\r\n    address[] public doctorList;\r\n    Meeting[] public meetings;\r\n\r\n    // Register Patient\r\n    function registerPatient(string memory _name, string memory _email) public {\r\n        require(bytes(patients[msg.sender].name).length == 0, \"Already registered\");\r\n        patients[msg.sender] = Patient(_name, _email, \"\");\r\n    }\r\n\r\n    // Register Doctor\r\n    function registerDoctor(string memory _name, string memory _email, string memory _specialty) public {\r\n        require(bytes(doctors[msg.sender].name).length == 0, \"Already registered\");\r\n        doctors[msg.sender] = Doctor(_name, _email, _specialty);\r\n        doctorList.push(msg.sender);\r\n    }\r\n\r\n    // Upload medical file by patient\r\n    function uploadRecord(string memory _fileHash) public {\r\n        require(bytes(patients[msg.sender].name).length > 0, \"Not a patient\");\r\n        patients[msg.sender].fileHash = _fileHash;\r\n    }\r\n\r\n    // Upload prescription to a patient (doctor only)\r\n    function uploadPrescription(address _patient, string memory _fileHash) public {\r\n        require(bytes(doctors[msg.sender].name).length > 0, \"Only doctors can upload\");\r\n        require(bytes(patients[_patient].name).length > 0, \"Invalid patient\");\r\n        prescriptions[_patient].push(_fileHash);\r\n    }\r\n\r\n    // Get prescriptions for a patient\r\n    function getPrescriptions(address _patient) public view returns (string[] memory) {\r\n        return prescriptions[_patient];\r\n    }\r\n\r\n    // Book a meeting\r\n    function createMeeting(address _doctor, string memory _desc, string memory _time) public {\r\n        require(bytes(patients[msg.sender].name).length > 0, \"Not a patient\");\r\n        require(bytes(doctors[_doctor].name).length > 0, \"Doctor not found\");\r\n        meetings.push(Meeting(msg.sender, _doctor, _desc, _time, false));\r\n    }\r\n\r\n    // Accept a meeting (doctor only)\r\n    function acceptMeeting(uint _index) public {\r\n        require(meetings[_index].doctor == msg.sender, \"Unauthorized\");\r\n        meetings[_index].isVerified = true;\r\n    }\r\n\r\n    // Get patient details\r\n    function getPatient(address _addr) public view returns (string memory, string memory, string memory) {\r\n        Patient memory p = patients[_addr];\r\n        return (p.name, p.email, p.fileHash);\r\n    }\r\n\r\n    // Get doctor details\r\n    function getDoctor(address _addr) public view returns (string memory, string memory, string memory) {\r\n        Doctor memory d = doctors[_addr];\r\n        return (d.name, d.email, d.specialty);\r\n    }\r\n\r\n    // Get list of registered doctors\r\n    function getDoctorList() public view returns (address[] memory) {\r\n        return doctorList;\r\n    }\r\n\r\n    // Get all meetings for a doctor\r\n    function getDoctorMeetings(address _doctor) public view returns (Meeting[] memory) {\r\n        uint count;\r\n        for (uint i = 0; i < meetings.length; i++) {\r\n            if (meetings[i].doctor == _doctor) count++;\r\n        }\r\n\r\n        Meeting[] memory result = new Meeting[](count);\r\n        uint j;\r\n        for (uint i = 0; i < meetings.length; i++) {\r\n            if (meetings[i].doctor == _doctor) {\r\n                result[j++] = meetings[i];\r\n            }\r\n        }\r\n        return result;\r\n    }\r\n\r\n    // Get all meetings for a patient\r\n    function getPatientMeetings(address _patient) public view returns (Meeting[] memory) {\r\n        uint count;\r\n        for (uint i = 0; i < meetings.length; i++) {\r\n            if (meetings[i].patient == _patient) count++;\r\n        }\r\n\r\n        Meeting[] memory result = new Meeting[](count);\r\n        uint j;\r\n        for (uint i = 0; i < meetings.length; i++) {\r\n            if (meetings[i].patient == _patient) {\r\n                result[j++] = meetings[i];\r\n            }\r\n        }\r\n        return result;\r\n    }\r\n}\r\n",
  "sourcePath": "C:\\Users\\venka\\OneDrive\\Desktop\\Electronic_Medical_Records\\contracts\\HealthSystem.sol",
  "compiler": {
    "name": "solc",
    "version": "0.8.0+commit.c7dfd78e.Emscripten.clang"
  },
  "schemaVersion": "3.4.16",
  "updatedAt": "2025-05-22T08:47:31.223Z",
  "networkType": "ethereum",
  "devdoc": {
    "kind": "dev",
    "methods": {},
    "version": 1
  },
  "userdoc": {
    "kind": "user",
    "methods": {},
    "version": 1
  }
}